:020000040800F2
:1000000000A0002015C2000861C2000861C20008FB
:1000100061C2000861C2000861C20008000000005F
:1000200000000000000000000000000061C20008A5
:1000300061C200080000000061C2000861C200083F
:1000400061C2000861C2000861C2000861C2000804
:1000500061C2000861C2000861C2000861C20008F4
:1000600061C2000861C2000861C20008990C000862
:1000700061C2000861C2000861C2000861C20008D4
:1000800061C2000861C20008550C000861C2000886
:1000900061C2000861C2000861C20008C90D000801
:1000A00061C2000861C20008E108000861C20008DE
:1000B00061C2000861C2000861C2000861C2000894
:1000C00061C2000861C2000861C2000861C2000884
:1000D00061C2000861C2000861C2000861C2000874
:1000E00061C2000861C2000861C2000861C2000864
:1000F00061C2000861C2000861C20008D50C000896
:1001000000000000000000000000000061C20008C4
:1001100061C2000861C200082D0A0008310400080D
:10012000B50C000861C2000861C2000861C2000885
:1001300061C2000861C20008000000000000000069
:1001400061C2000861C2000861C20008000000002E
:10015000000000000000000000000000000000009F
:10016000000000000000000061C2000861C2000839
:1001700061C2000800000000000000000000000054
:080180000000000061C200084C
:1001880010B5054C237833B9044810B10448AFF3CF
:1001980000800121217010BD04090020000000002A
:1001A800C836010808B5064B1BB106480649AFF327
:1001B80000800648016811B1054A02B1904708BDA0
:1001C80000000000C83601080809002004090020C2
:1001D8000000000080B582B000AF4FF000037B60E4
:1001E8004FF000037B600DE04FF48050C4F6000030
:1001F8004FF403414FF0010205F048FB7B6803F11F
:1002080001037B607A6847F2FF03C0F202039A4257
:10021800CCBF00230123DBB2002BE5D14FF0000354
:100228007B600DE04FF48050C4F600004FF40341AA
:100238004FF0000205F02AFB7B6803F101037B60A5
:100248007A6847F2FF03C0F202039A42CCBF002348
:100258000123DBB2002BE5D107F10807BD4680BDBD
:1002680080B588B000AF4FF4E1333B604FF0000336
:100278007B614FF00C033B614FF00003FB604FF0D4
:100288000003BB604FF000037B604FF4C063BB61A9
:100298004FF002033B774FF00003BB774FF00303A7
:1002A8007B774FF00003FB774FF480404FF001015C
:1002B80006F0E4FA4FF400304FF0010106F0B4FA0A
:1002C8004FF090404FF009014FF0070205F004FB92
:1002D8004FF090404FF00A014FF0070205F0FCFA8A
:1002E80007F118034FF09040194605F06FF93B46A7
:1002F8004FF46050C4F20100194609F0CFFC4FF4E6
:100308006050C4F201004FF0010109F0F1FD00BF97
:100318004FF46050C4F201004FF480010AF02CFA47
:100328000346002B14BF00230123DBB2002BEFD1BF
:1003380000BF4FF46050C4F201004FF400110AF0FE
:100348001BFA0346002B14BF00230123DBB2002B4A
:10035800EFD107F12007BD4680BD00BF80B586B04C
:1003680000AF4FF400104FF0010106F05DFA4FF4B2
:100378003F433B614FF001033B754FF00003FB75B2
:100388004FF00003BB754FF002037B7507F11003B4
:100398004FF48050C4F60000194605F017F94FF0E5
:1003A80036033B734FF006037B734FF00003BB73B8
:1003B8004FF00103FB7307F10C03184605F0F4FA3C
:1003C8004FF010004FF0010106F082FA40F283333B
:1003D8007B6041F61F433B804FF00003BB724FF038
:1003E80000033B814FF000037B803B464FF4805075
:1003F800C4F20000194607F0D7FB4FF48050C4F24E
:1004080000004FF001014FF0010209F027F84FF406
:100418008050C4F200004FF0010107F089FD07F198
:100428001807BD4680BD00BF90B599B000AF4FF426
:10043800A050C4F200004FF0010109F09BF840F60B
:100448002413C2F200031B683B6040F62413C2F277
:1004580000035B687B6040F62413C2F200039B68CC
:10046800BB6040F64C13C2F200031B68BB6240F647
:100478004C13C2F200035B68FB6240F64C13C2F2F5
:1004880000039B683B633C684FF40060C4F20000C3
:1004980007F07CFC03469BB21BB2E21840F624131B
:1004A800C2F200031A604FF40060C4F200004FF07B
:1004B800000107F04FFC40F62413C2F200031A684B
:1004C8003B68D31A4FF47A7202FB03F307EE903AB3
:1004D800B8EEE77AF3EE097AC7EE277A40F62413E6
:1004E800C2F20003C3ED017A40F62413C2F20003FE
:1004F80093ED017AD7ED017A37EE677ADFEDDA7A94
:1005080027EE277AF3EE097AC7EE277A40F6241306
:10051800C2F20003C3ED027ABC6A4FF45050C4F231
:10052800010007F033FC03469BB21BB2E21840F609
:100538004C13C2F200031A604FF45050C4F2010089
:100548004FF0000107F006FC40F64C13C2F200031E
:100558001A68BB6AD31A4FF47A7202FB03F307EEE8
:10056800903AB8EEE77AF3EE097AC7EE277A40F6C2
:100578004C13C2F20003C3ED017A40F64C13C2F2E9
:10058800000393ED017AD7ED0B7A37EE677ADFED4A
:10059800B67A27EE277AF3EE097AC7EE277A40F67D
:1005A8004C13C2F20003C3ED027A40F62413C2F2E0
:1005B800000393F82430012B5DD140F62413C2F2D6
:1005C8000003DA6840F62413C2F200031B68D31A4A
:1005D80007EE103AF8EEC77A37EEA77A40F62413FA
:1005E800C2F20003D3ED057AF8EEE76ADFED9F7AF1
:1005F80066EEA77A37EE277A40F62413C2F2000394
:10060800D3ED016ADFED9A7A66EEA77A77EE277A5C
:10061800C7ED177A97ED177ADFED967AB4EEE77A99
:10062800F1EE10FA04DD4FF00003C4F2C8230EE027
:1006380097ED177ADFED907AB4EEE77AF1EE10FADB
:1006480004D54FF00003CCF2C82300E0FB6DFB6536
:1006580097ED177ADFED877A37EE277AF0EE007A92
:10066800C7EE277A9FED837A77EE677A17EE900ABE
:1006780002F0C8FC0BE040F62413C2F2000393F822
:100688002430022B03D14FF0000002F0BBFC40F6EF
:100698004C13C2F2000393F82430012B40F0FE8083
:1006A80040F64C13C2F200031A6840F64C13C2F22B
:1006B8000003DB68D31ABB6540F64C13C2F2000393
:1006C800D3ED057AB8EEE77AD7ED167AF8EEE76A51
:1006D800F3EE097A66EEA76ADFED637AC6EEA77ACB
:1006E80077EE277AFDEEE77A40F64C13C2F2000364
:1006F800C3ED057A40F64C13C2F200035B69184655
:100708000AF026FF02460B461046194654A3D3E9C1
:1007180000230AF083FF02460B46104619464FF0A5
:1007280000024FF00003C4F259030BF007FA034626
:10073800002B1FD140F64C13C2F200035B69184628
:100748000AF006FF02460B461046194644A3D3E9B1
:1007580000230AF063FF02460B46104619464FF085
:1007680000024FF00003CCF259030BF0C9F903461D
:10077800002B06D040F64C13C2F2000340F29A2236
:100788005A61D7ED167AF8EEE77A37EEA77A40F68F
:100798004C13C2F20003D3ED057AF8EEE76ADFEDF9
:1007A800337A66EEA77A37EE277A40F64C13C2F210
:1007B80000039B69BA6DD31A07EE903AF8EEE76A20
:1007C800DFED2B7A66EEA76ADFED2D7AC6EEA77A03
:1007D80077EE277AC7ED157A97ED157ADFED257A4A
:1007E800B4EEE77AF1EE10FA04DD4FF00003C4F23C
:1007F800C8230EE097ED157ADFED1F7AB4EEE77A9D
:10080800F1EE10FA04D54FF00003CCF2C82300E053
:100818007B6D7B6540F64C13C2F20003BA6D9A619A
:10082800BB6D002BB8BF5B423B65BB6D0A2B03DC7D
:10083800BB6D13F10A0F25DA97ED157ADFED0D7A06
:1008480037EE277AF0EE007A87EE277ADFED0B7A1B
:1008580067EE277A17EE900A02F008FB1EE000BF49
:10086800333333333333C33F00007A449A99193E04
:100878008FC2353F0000C8420000C8C20AD7233CD7
:10088800CDCCCC3C4FF07C5002F0F0FA40F64C1343
:10089800C2F200034FF0000283F8242000F0F8FAB7
:1008A80040F6CC13C2F200031B68002B0FDB40F6A6
:1008B800D013C2F2000393ED007A5FED0F7A77EE62
:1008C800277A40F6D013C2F20003C3ED007A07F18D
:1008D8006407BD4690BD00BF80B586B000AF4FF439
:1008E8009040C4F201004FF0010108F043FE4FF0C0
:1008F8000903FB604FF00003BB744FF000033B7427
:100908004FF008037B7407F10C03184604F0B6FB9C
:100918004FF001033B724FF00003BB724FF001032D
:100928007B604FF00003FB724FF001037B7207F10D
:1009380004034FF48060C4F60000194604F046FE34
:100948004FF000037B614FF000037B610DE04FF433
:100958008060C4F600004FF001014FF0010204F07E
:1009680095FF7B6903F101037B617B69092BCCBF90
:1009780000230123DBB2002BE9D14FF48060C4F6D9
:1009880000004FF001014FF0000204F07FFF4FF02C
:1009980000033B724FF00103BB724FF001037B6011
:1009A8004FF00003FB724FF001037B7207F1040361
:1009B8004FF48060C4F60000194604F007FE4FF0BB
:1009C80080404FF0000107F0C5F940F6A413C2F2C9
:1009D80000034FF000021A604FF00903FB604FF06C
:1009E8000103BB744FF000033B744FF008037B74A2
:1009F80007F10C03184604F041FB4FF017033B7056
:100A08004FF00103FB704FF000037B704FF00003C1
:100A1800BB703B46184604F0C7FF07F11807BD46F0
:100A280080BD00BF80B500AF4FF48050C4F2000015
:100A38004FF0010108F09EFD40F6CC13C2F200030E
:100A48001B68B3F1FF3F16D140F20003C2F2000366
:100A58009B689AB240F20003C2F200035B699BB242
:100A680013439BB29BB24FF48050C4F60000194662
:100A780004F024FFE8E040F6CC13C2F200031B6840
:100A8800002B0DD140F20003C2F200039B699BB218
:100A98004FF48050C4F60000194604F00FFFD3E06D
:100AA80040F6CC13C2F200031B68012B16D140F2AA
:100AB8000003C2F200031B689AB240F20003C2F2BC
:100AC8000003DB689BB213439BB29BB24FF4805088
:100AD800C4F60000194604F0F1FEB5E040F6CC1368
:100AE800C2F200031B68022B1ED140F20003C2F2BF
:100AF80000031B689AB240F20003C2F20003DB68ED
:100B08009BB213439AB240F20003C2F200039B69FE
:100B18009BB213439BB29BB24FF48050C4F60000C3
:100B2800194604F0CBFE8FE040F6CC13C2F2000366
:100B38001B68032B3ED140F20003C2F200039B69FD
:100B48009AB240F20003C2F200031B689BB213433F
:100B58009AB240F20003C2F200035B689BB21343EF
:100B68009AB240F20003C2F200039B689BB213439F
:100B78009AB240F20003C2F20003DB689BB213434F
:100B88009AB240F20003C2F200031B699BB21343FE
:100B98009AB240F20003C2F200035B699BB21343AE
:100BA8009BB29BB24FF48050C4F60000194604F083
:100BB80085FE49E040F6CC13C2F200031B68042B03
:100BC80042D140F62013C2F200031B6803F1010270
:100BD80040F62013C2F200031A6040F62013C2F256
:100BE80000031A6840F20003C2F2000353F82230EF
:100BF8009AB240F62013C2F200031B68C3F1060143
:100C080040F20003C2F2000353F821309BB21343B1
:100C18009BB29BB24FF48050C4F60000194604F012
:100C28004DFE40F62013C2F200031B68062BD4BF0A
:100C380000230123DBB2002B06D040F62013C2F2BA
:100C480000034FF000021A6080BD00BF80B500AFFE
:100C58004FF0A0404FF0040103F0C2FD0346012B02
:100C680014BF00230123DBB2002B10D04FF0A040AB
:100C780003F09EFA03461A4640F67C13C2F20003BC
:100C88001A604FF0A0404FF0040103F0D9FD80BD79
:100C980080B500AF4FF0020004F07AF940F68813EF
:100CA800C2F200034FF001021A6080BD80B500AFA8
:100CB8004FF00200C1F2000004F06AF940F69C13FC
:100CC800C2F200034FF001021A7080BD80B582B0F5
:100CD80000AF4FF000037B604FF000033B604FF420
:100CE8008060C5F200004FF0800103F079FD0346F3
:100CF800002B0CBF00230123DBB2002B38D04FF4AC
:100D08008060C5F200004FF0800103F099FD4FF0BC
:100D180000037B600DE04FF48060C5F2000003F033
:100D280047FA03463A68D3183B607B6803F101032E
:100D38007B607B68222BCCBF00230123DBB2002B16
:100D4800E9D1D7ED007AB8EEE77ADFED1B7A87EEC6
:100D5800277ADFED1A7AB4EEE77AF1EE10FA26DD9B
:100D680040F69D13C2F200034FF001021A701EE014
:100D78004FF48060C5F200004FF4807103F030FD3D
:100D88000346002B0CBF00230123DBB2002B0ED03F
:100D98004FF48060C5F200004FF4807103F050FDFD
:100DA80040F69E13C2F200034FF001021A7007F1D9
:100DB8000807BD4680BD00BF00000C42000000458A
:100DC80080B584B000AF4FF0090004F067FB40F62F
:100DD800A413C2F200031B68002B24D14FF08040FB
:100DE8004FF0000106F0B6FF4FF080404FF00101D0
:100DF80007F09EF84FF00903BB604FF00103BB7387
:100E08004FF000033B734FF00C037B7307F10803AB
:100E1800184604F033F940F6A413C2F200034FF069
:100E280001021A602FE040F6A413C2F200031B6807
:100E3800012B28D14FF0804006F0A8FF03461A4640
:100E480040F6A013C2F200031A604FF080404FF042
:100E5800000107F06DF84FF017033B714FF00003E6
:100E6800FB714FF000037B714FF00003BB7107F17A
:100E78000403184604F098FD40F6A413C2F20003D8
:100E88004FF000021A6007F11007BD4680BD00BF91
:100E980080B582B000AF4FF07C537B6040F6A01362
:100EA800C2F20003D3ED007AB8EEE77AF6EE007AE4
:100EB80027EE277ADFEDE47A67EE277A40F6BC134F
:100EC800C2F20003C3ED007A40F6CC13C2F200036D
:100ED8001B68012B40F0318140F68013C2F20003F9
:100EE8001B681A4640F68C13C2F200039B68D31A9B
:100EF80007EE103AF8EEC77A40F6AC13C2F20003D8
:100F0800C3ED007A40F6AC13C2F2000393ED007A09
:100F1800FBEE047AB4EEE77AF1EE10FA1CDD40F647
:100F2800AC13C2F2000393ED007AF3EE047AB4EE48
:100F3800E77AF1EE10FA0FD54FF07C5001F096FFEA
:100F48004FF07C5002F05EF840F6CC13C2F200037A
:100F58004FF002021A60E5E340F6AC13C2F2000358
:100F680093ED007A40F6B013C2F20003D3ED007A95
:100F780037EE677ADFEDBA7A67EE277A40F6B41370
:100F8800C2F20003C3ED007A40F6C013C2F20003B8
:100F98004FF000021A6040F6AC13C2F2000393ED62
:100FA800007ADFEDB07A87EE277A40F6B413C2F202
:100FB8000003D3ED006ADFEDA57AC6EEA77A77EED7
:100FC800277A40F6A813C2F20003C3ED007A40F670
:100FD800B813C2F200034FF000021A604FF07C53BE
:100FE8007B6040F6A813C2F2000393ED007AF6EE98
:100FF800007AB4EEE77AF1EE10FA06DD40F6A813AF
:10100800C2F200034FF07C521A6040F6A813C2F2F5
:10101800000393ED007AFEEE007AB4EEE77AF1EE83
:1010280010FA06D540F6A813C2F200034FF03F426B
:101038001A60B7EE007AD7ED017A37EE677A40F694
:10104800A813C2F20003D3ED007A37EE677A40F6B0
:10105800B813C2F20003D3ED007A77EE677A40F650
:10106800C413C2F20003C3ED007A40F6A813C2F21B
:101078000003D3ED007A97ED017A37EE677A40F6F0
:10108800B813C2F20003D3ED007A77EE677A40F620
:10109800C813C2F20003C3ED007A40F6C413C2F2CB
:1010A800000393ED007AF7EE007AB4EEE77AF1EEFA
:1010B80010FA07DD40F6C413C2F200034FF07E5267
:1010C8001A6011E040F6C413C2F20003D3ED007AAF
:1010D800F5EEC07AF1EE10FA06D540F6C413C2F266
:1010E80000034FF000021A6040F6C813C2F2000372
:1010F80093ED007AF7EE007AB4EEE77AF1EE10FAA3
:1011080007DD40F6C813C2F200034FF07E521A60A2
:10111800D9E240F6C813C2F20003D3ED007AF5EE27
:10112800C07AF1EE10FA40F1CE8240F6C813C2F24E
:1011380000034FF000021A60C5E240F6CC13C2F279
:1011480000031B68002B40F0618140F68C13C2F24B
:1011580000031B68A3F6980307EE903AB8EEE77A07
:10116800DFED3B7A27EE277A40F68013C2F20003C0
:101178005B68A3F1960307EE903AF8EEE76ADFEDB5
:10118800357A66EEA77A77EE277A40F6AC13C2F284
:101198000003C3ED007A40F6AC13C2F2000393EDEE
:1011A800007A40F6B013C2F20003D3ED007A37EEAE
:1011B800677ADFED2B7A67EE277A40F6B413C2F22E
:1011C8000003C3ED007A40F6AC13C2F2000393EDBE
:1011D800007ADFED217A87EE277A40F6B413C2F25F
:1011E8000003D3ED006ADFED1D7AC6EEA77A77EE2D
:1011F800277A40F6A813C2F20003C3ED007A40F63E
:10120800BC13C2F200031B6818460AF0B3F9024681
:101218000B46104619460AA3D3E900230AF070FCCE
:101228000346002B08D140F68C13C2F20003DA689B
:1012380040F24E739A4219D94FF0010318E000BFEB
:1012480014AE47E17A14E63F821C943A00C0374452
:10125800CDCC0C3F6666E63E00401C4500806845E4
:10126800CDCCCC3C0000FA4300006C444FF00003A6
:10127800002B13D040F6B813C2F200034FF07C5293
:101288001A6049F69A13C3F699637B6040F6A8136F
:10129800C2F200034FF000021A600BE040F6B813E8
:1012A800C2F200034FF000021A6049F69A13C3F61F
:1012B80059737B6040F6A813C2F2000393ED007ADD
:1012C800F6EE007AB4EEE77AF1EE10FA06DD40F6B3
:1012D800A813C2F200034FF07C521A6040F6A8131C
:1012E800C2F2000393ED007AFEEE007AB4EEE77ADC
:1012F800F1EE10FA06D540F6A813C2F200034FF03B
:101308003F421A60B7EE007AD7ED017A37EE677A76
:1013180040F6A813C2F20003D3ED007A37EE677ADD
:1013280040F6B813C2F20003D3ED007A77EE677A7D
:1013380040F6C413C2F20003C3ED007A40F6A813C6
:10134800C2F20003D3ED007A97ED017A37EE677A9F
:1013580040F6B813C2F20003D3ED007A77EE677A4D
:1013680040F6C813C2F20003C3ED007A40F6C41376
:10137800C2F2000393ED007AF7EE007AB4EEE77A52
:10138800F1EE10FA07DD40F6C413C2F200034FF085
:101398007E521A6011E040F6C413C2F20003D3ED86
:1013A800007AF5EEC07AF1EE10FA06D540F6C413CD
:1013B800C2F200034FF000021A6040F6C813C2F2EE
:1013C800000393ED007AF7EE007AB4EEE77AF1EED7
:1013D80010FA07DD40F6C813C2F200034FF07E5240
:1013E8001A6070E140F6C813C2F20003D3ED007A28
:1013F800F5EEC07AF1EE10FA40F1658140F6C813B7
:10140800C2F200034FF000021A605CE140F6CC1310
:10141800C2F200031B68032B40F0558140F680138D
:10142800C2F200031B681A4640F68C13C2F200038E
:101438009B68D31A07EE103AF8EEC77A40F6AC1359
:10144800C2F20003C3ED007A40F6AC13C2F2000307
:1014580093ED007A40F6B013C2F20003D3ED007AA0
:1014680037EE677A5FED827A67EE277A40F6B41333
:10147800C2F20003C3ED007A40F6C013C2F20003C3
:101488004FF000021A6040F6AC13C2F2000393ED6D
:10149800007A5FED8C7A87EE277A40F6B413C2F2B1
:1014A8000003D3ED006A5FED907AC6EEA77A77EE77
:1014B800277A40F6A813C2F20003C3ED007A40F67B
:1014C800B813C2F200034FF000021A604FF07C53C9
:1014D8007B6040F6A813C2F2000393ED007AF6EEA3
:1014E800007AB4EEE77AF1EE10FA06DD40F6A813BA
:1014F800C2F200034FF07C521A6040F6A813C2F201
:10150800000393ED007AFEEE007AB4EEE77AF1EE8E
:1015180010FA06D540F6A813C2F200034FF03F4276
:101528001A60B7EE007AD7ED017A37EE677A40F69F
:10153800A813C2F20003D3ED007A37EE677A40F6BB
:10154800B813C2F20003D3ED007A77EE677A40F65B
:10155800C413C2F20003C3ED007A40F6A813C2F226
:101568000003D3ED007A97ED017A37EE677A40F6FB
:10157800B813C2F20003D3ED007A77EE677A40F62B
:10158800C813C2F20003C3ED007A40F6C413C2F2D6
:10159800000393ED007AF7EE007AB4EEE77AF1EE05
:1015A80010FA07DD40F6C413C2F200034FF07E5272
:1015B8001A6011E040F6C413C2F20003D3ED007ABA
:1015C800F5EEC07AF1EE10FA06D540F6C413C2F271
:1015D80000034FF000021A6040F6C813C2F200037D
:1015E80093ED007AF7EE007AB4EEE77AF1EE10FAAE
:1015F80007DD40F6C813C2F200034FF07E521A60AE
:1016080011E040F6C813C2F20003D3ED007AF5EEFC
:10161800C07AF1EE10FA06D540F6C813C2F20003FC
:101628004FF000021A6040F6D013C2F2000393EDA7
:10163800007A40F6D413C2F20003D3ED007A37EEF5
:10164800677AF2EE047AB4EEE77AF1EE10FA3ADD50
:101658004CF6CD40C3F64C5001F0A8FD40F68C1373
:10166800C2F200039B68B3F5077F07D840F68013E2
:10167800C2F200031B68B3F5077F02D94FF00103DC
:1016880001E04FF00003002B07D040F6CC13C2F264
:1016980000034FF000021A6015E04FF07C5001F093
:1016A800E5FB4FF07C5001F0ADFC40F6B813C2F2F8
:1016B80000034FF000021A6040F6CC13C2F2000398
:1016C8004FF004021A6040F6CC13C2F200031B6804
:1016D800002B0DD040F6CC13C2F200031B68012B7F
:1016E80006D040F6CC13C2F200031B68032B19D1B5
:1016F80040F6C413C2F200031B68184601F0B6FB9B
:1017080040F6C813C2F200031B68184601F07AFCC1
:1017180040F6AC13C2F200031A6840F6B013C2F2E6
:1017280000031A6007F10807BD4680BDAFF30080CB
:1017380080B500AF09F0E6FBFEF792FDFEE700BFBB
:1017480080B582B000AF4FF480104FF0010105F072
:101758006BF84FF44060C4F6000003F0BBFE4FF096
:1017680000033B714FF00103BB714FF008033B606E
:101778004FF00203FB713B464FF44060C4F6000093
:10178800194603F023FF00BF4FF44060C4F6000081
:101798004FF0080104F002F80346002B14BF0023A1
:1017A8000123DBB2002BEFD140F6D013C2F20003C5
:1017B8004FF000021A6040F6CC13C2F200034FF05B
:1017C80000021A6007F10807BD4680BD80B52DEDFF
:1017D800028B84B000AF7860D7ED017AB8EEE77A73
:1017E800DFED537A67EE277AC7ED037AF86809F0D8
:1017F800C1FE02460B46104619464FF000024FF054
:101808000003C4F218030AF029FD02460B461046ED
:1018180019460AF0C5F907EE100ADFED467A27EEF9
:10182800278AF86809F0A6FE02460B4610461946B4
:101838004FF000024FF00003C4F214030AF00EFD4B
:1018480002460B46104619460AF0AAF907EE100A96
:10185800DFED397A67EE277A38EE678AF86809F09B
:1018680089FE02460B46104619464FF000024FF01B
:101878000003C4F210030AF0F1FC02460B461046BE
:1018880019460AF08DF907EE100ADFED2C7A67EE9B
:10189800277A38EE278AF86809F06CFE02460B466C
:1018A800104619464FF000024FF00003C4F2080337
:1018B8000AF0D4FC02460B46104619460AF070F9A5
:1018C80007EE100ADFED1E7A67EE277A38EE678A90
:1018D800F86809F04FFE02460B46104619464FF0CD
:1018E80000024FF080430AF0B9FC02460B4610464E
:1018F80019460AF055F907EE100ADFED127A67EE7D
:10190800277A38EE277AD7ED036ADFED0F7A66EE8D
:10191800A77A37EE677ADFED0D7A77EE277A17EE3A
:10192800903A184607F11007BD46BDEC028B80BD02
:101938004A03643AC1CA213F273100413333244264
:101948006666DB4233B32443CDCC0A43C3F5704209
:1019580080B586B000AF4FF00703BB744FF00003AB
:10196800FB744FF000033B754FF000037B754FF09D
:101978000003BB754FF000037B744FF008033B7402
:1019880007F11003184608F099FF00F0B3FA034670
:101998001A4640F67813C2F200031A6040F6741330
:1019A800C2F200034FF000021A604FF01A033B73B3
:1019B8004FF000037B734FF00003BB734FF001033C
:1019C800FB7307F10C03184603F0EEFF4FF4802079
:1019D8004FF0010104F052FF40F28F137B6041F693
:1019E8001F433B804FF00003BB724FF000033B8165
:1019F8004FF000037B803B464FF49040C4F2010057
:101A0800194606F0D1F84FF49040C4F201004FF0A7
:101A180001014FF0010207F021FD4FF49040C4F29C
:101A280001004FF0010106F083FA07F11807BD46DF
:101A380080BD00BF80B500AF43F28C40C0F6010006
:101A48000BF018FF4FF00003184680BD80B582B038
:101A580000AF4FF400104FF0010104F0E5FE3B46E3
:101A6800184603F05BFE4FF00C033B604FF0000399
:101A7800BB714FF001033B714FF00003FB714FF056
:101A880002037B713B464FF48050C4F600001946B0
:101A980003F09CFD4FF48050C4F600004FF00401A1
:101AA8004FF0000203F0F2FE4FF48050C4F600003D
:101AB8004FF008014FF0000203F0E8FE07F10807B5
:101AC800BD4680BD80B582B000AF4FF488004FF0AE
:101AD800010104F0A9FE4FF000033B714FF0010330
:101AE800BB714FF400733B604FF00003FB714FF084
:101AF80001037B713B464FF4A050C4F60000194621
:101B080003F064FD4FF001033B714FF00003BB711C
:101B18004FF001033B604FF00003FB714FF00103EE
:101B28007B713B464FF48060C4F60000194603F011
:101B38004DFD4FF001004FF0010104F09FFE4FF002
:101B480005004FF0090105F09FFE07F10807BD46A3
:101B580080BD00BF80B584B000AF4FF001004FF0EA
:101B6800010104F0B5FE44F24F63BB604FF000037F
:101B7800BB734FF04703BB804FF00003BB814FF0AE
:101B88000003FB8007F104034FF08040194606F07C
:101B98000BF84FF080404FF0000106F0DBF807F13A
:101BA8001007BD4680BD00BF80B58AB000AF4FF0BA
:101BB80001004FF0010104F061FE4FF0030387F8C4
:101BC80024304FF0000387F827304FF080033B6242
:101BD8004FF400304FF0010104F026FE07F1200316
:101BE8004FF09040194603F0F1FC4FF0020387F8DC
:101BF80024304FF0000387F826304FF0000387F8B1
:101C080027304FF400733B624FF48060C4F6000045
:101C18004FF009014FF0080203F05EFE07F12003C0
:101C28004FF48060C4F60000194603F0CFFC4FF073
:101C3800000004F0BFF94FF030037B604FF0000361
:101C4800BB604FF00403FB614FF00003FB604FF0F3
:101C580000037B614FF48033BB614FF000033B61AD
:101C680007F104034FF00400194602F00BFE4FF091
:101C780004004FF0010102F063FE4FF001004FF045
:101C8800010104F0FBFD4FF0030387F824304FF007
:101C9800000387F827304FF480433B624FF4C0209D
:101CA8004FF0010104F0C0FD07F120034FF48060FC
:101CB800C4F60000194603F089FC4FF0020387F8C8
:101CC80024304FF0000387F826304FF0000387F8E0
:101CD80027304FF480733B624FF40060C4F6000075
:101CE8004FF008014FF0070203F0F6FD07F120035B
:101CF8004FF40060C4F60000194603F067FC4FF08B
:101D0800000004F057F94FF030037B604FF00003F8
:101D1800BB604FF00403FB614FF00003FB604FF022
:101D280000037B614FF48033BB614FF000033B61DC
:101D380007F104034FF00800194602F0A3FD4FF025
:101D480008004FF0010102F0FBFD4FF001004FF0D9
:101D5800010104F093FD4FF0030387F824304FF09E
:101D6800000387F827304FF080033B624FF41010D0
:101D78004FF0010104F058FD07F120034FF48050A3
:101D8800C4F60000194603F021FC4FF0020387F85F
:101D980024304FF0000387F826304FF0000387F80F
:101DA80027304FF002033B624FF48060C4F6000016
:101DB8004FF001014FF0080203F08EFD07F12003F8
:101DC8004FF48060C4F60000194603F0FFFB4FF0A3
:101DD800000004F0EFF84FF030037B604FF0800311
:101DE800BB604FF00403FB614FF00003FB604FF052
:101DF80000037B614FF48033BB614FF000033B610C
:101E080007F104034FF00C00194602F03BFD4FF0B8
:101E18000C004FF0010102F093FD4FF001004FF06C
:101E2800010104F02BFD4FF0030387F824304FF035
:101E3800000387F827304FF002033B624FF400207D
:101E48004FF0010104F0F0FC07F120034FF40060AB
:101E5800C4F60000194603F0B9FB4FF0020387F8F7
:101E680024304FF0000387F826304FF0000387F83E
:101E780027304FF004033B624FF40060C4F60000C3
:101E88004FF002014FF0030203F026FD07F1200393
:101E98004FF40060C4F60000194603F097FB4FF0BA
:101EA800000004F087F84FF030037B604FF08003A8
:101EB800BB604FF00403FB614FF00003FB604FF081
:101EC80000037B614FF48033BB614FF000033B613B
:101ED80007F104034FF01800194602F0D3FC4FF045
:101EE80018004FF0010102F02BFD07F12807BD464D
:101EF80080BD00BF80B584B000AF4FF00003FB6029
:101F08004FF00003BB604FF00003FB6019E03B4655
:101F180018464FF028014FF0020208F061FE7B7866
:101F28004FEA03239AB23B7813439BB29BB2BB8020
:101F3800BB881BB2BA68D318BB60FB6803F1010306
:101F4800FB60FB68F92BCCBF00230123DBB2002B1D
:101F5800DDD1D7ED027AB8EEE77ADFED077AC7EE82
:101F6800277AFDEEE77A17EE903A9BB21BB2184635
:101F780007F11007BD4680BD00007A4380B59CB0CC
:101F880000AF4FF4887004F0DFFA4FF080504FF044
:101F9800010104F049FC4FF400304FF0010104F056
:101FA80043FC07F15003184603F0B8FB4FF00C034D
:101FB8003B654FF0030387F854304FF0000387F870
:101FC800573007F150034FF09040194603F0FEFADE
:101FD8003B46184601F0FAFA4FF0A0404FF00101D5
:101FE80001F09CFC4FF00003FB6607E0FB6E03F179
:101FF8000103FB66FB6E03F10103FB66FA6E4FF605
:10200800FF139A42CCBF00230123DBB2002BEDD192
:102018004FF0A0404FF0000101F024FC4FF0A04029
:1020280001F0F4FB00BF4FF0A04001F031FC034683
:10203800002B0CBF00230123DBB2002BF3D14FF0A0
:102048000003BB654FF00003FB654FF400433B669C
:102058004FF002037B664FF00F0387F8683007F1F3
:1020680058034FF0A040194601F036FB4FF40053D7
:102078003B604FF000037B604FF00003BB604FF004
:102088000003FB604FF000033B614FF000037B61EE
:102098004FF00003BB614FF002033B773B464FF024
:1020A800A040194601F050FA4FF0A0404FF003014C
:1020B8004FF001024FF0070301F0B0FE4FF0A040CF
:1020C8004FF004014FF002024FF0070301F0A6FEA3
:1020D8004FF0A0404FF0010101F07CFB00BF4FF032
:1020E800A0404FF0010102F0EDFA0346002B14BFA7
:1020F80000230123DBB2002BF1D14FF0A04001F007
:10210800D9FF4FF001004FF0010104F08DFB07F1FA
:102118002003184602F034FE4FF00800C4F2020013
:1021280002F0DEFC4FF04003C5F200033B6240F6CC
:102138008013C2F200037B624FF00003BB624FF0D2
:102148000203BB854FF000033B634FF080037B63C2
:102158004FF40073BB634FF40063FB634FF020033D
:102168003B644FF400537B644FF00003BB6407F1FA
:1021780020034FF00800C4F20200194602F0C0FD27
:102188004FF00B0387F84C304FF0020387F84D30BF
:102198004FF0000387F84E304FF0010387F84F30B7
:1021A80007F14C03184603F0FFFB4FF00800C4F298
:1021B80002004FF002014FF0010202F04FFE4FF013
:1021C8000800C4F202004FF0010102F00FFE4FF0C8
:1021D800A0404FF0020102F053F94FF0A0404FF039
:1021E800010102F031F907F17007BD4680BD00BF5B
:1021F80080B59CB000AF4FF4887004F0A5F94FF09B
:1022080080504FF0010104F00FFB4FF460204FF0B5
:10221800010104F009FB07F15003184603F07EFAA8
:102228004FF010033B654FF0030387F854304FF02D
:10223800000387F857304FF0030387F8553007F14C
:1022480050034FF09040194603F0C0F907F15003CE
:10225800184603F063FA4FF004033B654FF003039D
:1022680087F854304FF0000387F8573007F15003D0
:102278004FF48060C4F60000194603F0A7F907F18F
:102288005003184603F04AFA4FF030033B654FF00D
:10229800030387F854304FF0000387F8573007F1ED
:1022A80050034FF40060C4F60000194603F08EF99D
:1022B8003B46184601F08AF94FF48070C5F20000D9
:1022C8004FF0010101F02AFB4FF00003FB6607E025
:1022D800FB6E03F10103FB66FB6E03F10103FB6672
:1022E800FA6E4FF6FF139A42CCBF00230123DBB2EC
:1022F800002BEDD14FF48070C5F200004FF00001C3
:1023080001F0B0FA4FF48070C5F2000001F07EFAD7
:1023180000BF4FF48070C5F2000001F0B9FA03461F
:10232800002B0CBF00230123DBB2002BF1D14FF0AF
:102338000003BB654FF00003FB654FF400433B66A9
:102348004FF002037B664FF00F0387F8683007F100
:1023580058034FF48070C5F20000194601F0BCF92B
:102368004FF400533B604FF000037B604FF00003D5
:10237800BB604FF00003FB604FF000033B614FF080
:1023880000037B614FF00003BB614FF004033B7710
:102398003B464FF48070C5F20000194601F0D4F8AE
:1023A8004FF48070C5F200004FF001014FF00102B8
:1023B8004FF0070301F032FD4FF48070C5F20000C2
:1023C8004FF005014FF002024FF0070301F026FD20
:1023D8004FF48070C5F200004FF00B014FF003027C
:1023E8004FF0070301F01AFD4FF48070C5F20000AA
:1023F8004FF00C014FF004024FF0070301F00EFDFF
:102408004FF48070C5F200004FF0010101F0E2F9CD
:1024180000BF4FF48070C5F200004FF0010102F0D8
:1024280051F90346002B14BF00230123DBB2002B14
:10243800EFD14FF48070C5F2000001F03BFE4FF081
:1024480002004FF0010104F0EFF907F120031846EC
:1024580002F096FC4FF48160C4F2020002F040FBE7
:102468004FF4A073C5F200033B6240F68C13C2F22E
:1024780000037B624FF00003BB624FF00403BB858F
:102488004FF000033B634FF080037B634FF400730E
:10249800BB634FF40063FB634FF020033B644FF4CE
:1024A80000537B644FF00003BB6407F120034FF433
:1024B8008160C4F20200194602F022FC4FF0380392
:1024C80087F84C304FF0020387F84D304FF0000387
:1024D80087F84E304FF0010387F84F3007F14C036F
:1024E800184603F061FA4FF48160C4F202004FF01D
:1024F80002014FF0010202F0B1FC4FF48160C4F216
:1025080002004FF0010102F071FC4FF48070C5F237
:1025180000004FF0020101F0B3FF4FF48070C5F2E4
:1025280000004FF0010101F08FFF07F17007BD4671
:1025380080BD00BF80B592B000AF4FF45050C1F2DB
:10254800000004F001F84FF000504FF0010104F0D2
:102558006BF94FF410104FF0010104F065F907F121
:102568002803184603F0DAF842F20203BB624FF080
:10257800030387F82C304FF0000387F82F3007F15A
:1025880028034FF48060C4F60000194603F01EF8D3
:1025980007F10403184601F019F84FF48060C5F2FA
:1025A80000004FF0010101F0B9F94FF000037B641E
:1025B80007E07B6C03F101037B647B6C03F101038F
:1025C8007B647A6C47F6FF439A42CCBF0023012311
:1025D800DBB2002BEDD14FF48060C5F200004FF064
:1025E800000101F03FF94FF48060C5F2000001F0EE
:1025F8000DF900BF4FF48060C5F2000001F048F902
:102608000346002B0CBF00230123DBB2002BF1D1C2
:102618004FF000033B634FF440337B634FF00003FC
:10262800BB634FF00003FB634FF0000387F84030B3
:1026380007F130034FF48060C5F20000194601F03D
:102648004BF84FF400537B604FF00003BB604FF032
:102658000003FB604FF000033B614FF000037B6118
:102668004FF00003BB614FF00003FB614FF0020322
:1026780087F8203007F104034FF48060C5F20000AA
:10268800194600F061FF4FF48060C5F200004FF07A
:1026980001014FF001024FF0070301F0BFFB4FF4B7
:1026A8008060C5F200004FF005014FF002024FF0C4
:1026B800070301F0B3FB4FF48060C5F200004FF050
:1026C800010101F049FA4FF48060C5F200004FF0B3
:1026D800050101F05FFA4FF48060C5F200004FF485
:1026E80000614FF00A0201F0BBF94FF48060C5F2B7
:1026F80000004FF080014FF0000201F0DDF94FF4C7
:102708008060C5F200004FF4400101F08DF94FF0F0
:102718002F0387F824304FF0000387F825304FF057
:10272800000387F826304FF0010387F8273007F1B8
:102738002403184603F038F94FF48060C5F200000E
:102748004FF4C0714FF0010201F09EFF4FF480601A
:10275800C5F200004FF0010101F03CF800BF4FF452
:102768008060C5F200004FF0010101F0ABFF0346A5
:10277800002B14BF00230123DBB2002BEFD14FF451
:102788008060C5F2000001F095FC07F14807BD46DE
:1027980080BD00BF80B592B000AF4FF4887003F0E1
:1027A800D3FE4FF080504FF0010104F03DF84FF494
:1027B80000304FF0010104F037F84FF00403BB621A
:1027C8004FF0030387F82C304FF0000387F82F30C1
:1027D80007F128034FF09040194602F0F7FE07F181
:1027E8000403184600F0F2FE4FF0A0404FF001013C
:1027F80001F094F84FF000037B6407E07B6C03F171
:1028080001037B647B6C03F101037B647A6C47F6FC
:10281800FF439A42CCBF00230123DBB2002BEDD14A
:102828004FF0A0404FF0000101F01CF84FF0A0401D
:1028380000F0ECFF00BF4FF0A04001F029F803467C
:10284800002B0CBF00230123DBB2002BF3D14FF088
:1028580000033B634FF000037B634FF00003BB634F
:102868004FF00003FB634FF0000387F8403007F197
:1028780030034FF0A040194600F02EFF4FF40053EC
:102888007B604FF00003BB604FF00003FB604FF02C
:1028980000033B614FF000037B614FF00003BB6115
:1028A8004FF00003FB614FF0010387F8203007F178
:1028B80004034FF0A040194600F046FE4FF0A04038
:1028C8004FF003014FF001024FF0070301F0A6FAA1
:1028D8004FF0120387F824304FF0020387F82530B1
:1028E8004FF0000387F826304FF0010387F82730B0
:1028F80007F12403184603F057F84FF0A0404FF0B3
:1029080004014FF0010201F0BFFE4FF0A0404FF06C
:10291800010100F05FFF00BF4FF0A0404FF0010140
:1029280001F0D0FE0346002B14BF00230123DBB2C5
:10293800002BF1D14FF0A04001F0BCFB07F1480794
:10294800BD4680BD80B582B000AF78604FF0010011
:1029580043F2CC41C0F601014FF0040200F07AF9CD
:10296800FEE700BF80B483B000AF78604FF0FF335C
:10297800184607F10C07BD4680BC704780B485B087
:1029880000AFF860B9607A6040F61823C2F200031D
:102998004FF00C021A604FF0FF33184607F1140786
:1029A800BD4680BC704700BF80B400AF40F6182316
:1029B800C2F200034FF00B021A604FF0FF331846C3
:1029C800BD4680BC704700BF80B483B000AF78605C
:1029D80039603B684FF400525A604FF000031846C4
:1029E80007F10C07BD4680BC704700BF80B400AF3C
:1029F8004FF001031846BD4680BC704780B483B0D1
:102A080000AF78607B6803F10003022B02D84FF017
:102A1800010308E040F61823C2F200034FF0090250
:102A28001A604FF00003184607F10C07BD4680BC3A
:102A3800704700BF80B483B000AF7860396040F65B
:102A48001823C2F200034FF016021A604FF0FF334A
:102A5800184607F10C07BD4680BC704780B483B0A8
:102A680000AF7860396040F61823C2F200034FF0D7
:102A78001F021A604FF0FF33184607F10C07BD46D6
:102A880080BC704780B485B000AFF860B9607A60E8
:102A98004FF00003184607F11407BD4680BC704785
:102AA80090B585B000AF786040F6E013C2F200033D
:102AB8001B68002B08D140F6E013C2F2000340F671
:102AC8001C22C2F200021A6040F6E013C2F20003B0
:102AD8001B68FB60EFF308842346BB6040F6E013F5
:102AE800C2F200031A687B68D218BB689A4213D9ED
:102AF8004FF0020043F2D441C0F601014FF0190231
:102B080000F0A8F840F61823C2F200034FF00C02B8
:102B18001A604FF0FF330CE040F6E013C2F20003F6
:102B28001A687B68D21840F6E013C2F200031A60F4
:102B3800FB68184607F11407BD4690BD80B489B0FC
:102B480000AFF860B9607A604FF00003BB61FB68C2
:102B5800002B28D14FF00003FB611FE000BF4FF4AA
:102B68006053C4F20103DB6903F02003002BF6D0A5
:102B78004FF46053C4F201039B8C9BB2FB75BB6896
:102B8800FA7D1A70BB6803F10103BB60BB6903F1EE
:102B98000103BB61FB6903F10103FB61FA697B680F
:102BA8009A42DBDB09E040F61823C2F200034FF03B
:102BB80009021A604FF0FF3300E0BB69184607F1BD
:102BC8002407BD4680BC704780B483B000AF7860EE
:102BD80039603B684FF400525A604FF000031846C2
:102BE80007F10C07BD4680BC704700BF80B483B0B6
:102BF80000AF78604FF0FF33184607F10C07BD4669
:102C080080BC704780B483B000AF786040F618236A
:102C1800C2F200034FF002021A604FF0FF33184669
:102C280007F10C07BD4680BC704700BF80B483B075
:102C380000AF786040F61823C2F200034FF00A0292
:102C48001A604FF0FF33184607F10C07BD4680BCE9
:102C5800704700BF80B487B000AFF860B9607A6091
:102C6800FB68012B02D0022B22D043E04FF0000377
:102C78007B6118E000BF4FF46053C4F20103DB69C5
:102C880003F04003002BF6D04FF46053C4F2010365
:102C9800BA6812781A85BB6803F10103BB607B69C7
:102CA80003F101037B617A697B689A42E2DB2BE0DE
:102CB8004FF000037B6118E000BF4FF48843C4F273
:102CC8000003DB6903F04003002BF6D04FF4884380
:102CD800C4F20003BA6812781A85BB6803F10103CD
:102CE800BB607B6903F101037B617A697B689A4267
:102CF800E2DB09E040F61823C2F200034FF00902B4
:102D08001A604FF0FF3300E07B68184607F11C0794
:102D1800BD4680BC704700BF80B58EB000AF03468B
:102D2800FB804FF000037B634FF000033B63F9889F
:102D380007F1340207F13003084611461A4600F03D
:102D480057FA4FF00003FB844FF00003BB854FF0A8
:102D5800000387F82E303B6B9BB203F1FF339BB225
:102D6800BB847B6B9BB203F1FF33BB624FF0600304
:102D78003B614FF00103BB8241F6FF73BB614FF02B
:102D88000003BB834FF002033B734FF00003BB7398
:102D98004FF01003BB604FF00103FB734FF00303C8
:102DA8007B734FF480204FF0010103F03DFD4FF499
:102DB8008060C4F600004FF004014FF0020202F0F8
:102DC8008BFD07F108034FF48060C4F60000194634
:102DD80002F0FCFB4FF002004FF0010103F078FD18
:102DE8004FF48060C4F2000006F026FC07F12403CB
:102DF8004FF48060C4F20000194604F0D5FE07F1D4
:102E080010034FF48060C4F20000194605F0B0F8D2
:102E18004FF48060C4F200004FF0080105F05EFD39
:102E28004FF48060C4F200004FF0010105F028F86B
:102E38004FF48060C4F200004FF000014FF001022F
:102E480006F03EF84FF48060C4F200004FF0010134
:102E580005F06EF84FF48060C4F200004FF00101F5
:102E680006F01CFB07F13807BD4680BD80B584B06D
:102E780000AF78604FF48063C4F20003D3ED0B7A9F
:102E8800B8EE677AD7ED017A67EE277AFCEEE77A33
:102E980017EE903AFB81FB894FF48060C4F2000082
:102EA800194605F015FC07F11007BD4680BD00BFA7
:102EB80080B58EB000AF0346FB804FF000037B6304
:102EC8004FF000033B63F98807F1340207F1300340
:102ED800084611461A4600F08BF94FF00003FB84B0
:102EE8004FF00003BB854FF0000387F82E303B6B93
:102EF8009BB203F1FF339BB2BB847B6B9BB203F1A4
:102F0800FF33BB624FF060033B614FF00103BB82AC
:102F180041F6FF73BB614FF00003BB834FF0020320
:102F28003B734FF00003BB734FF02003BB604FF0BF
:102F38000103FB734FF003037B734FF480204FF0C2
:102F4800010103F071FC4FF48060C4F600004FF0FB
:102F580005014FF0020202F0BFFC07F108034FF42D
:102F68008060C4F60000194602F030FB4FF0020002
:102F78004FF0010103F0ACFC4FF48060C4F2000094
:102F880006F05AFB07F124034FF48060C4F20000F6
:102F9800194604F009FE07F110034FF48060C4F2EB
:102FA8000000194605F078F84FF48060C4F200007C
:102FB8004FF0080105F0AEFC4FF48060C4F2000049
:102FC8004FF0010104F05CFF4FF48060C4F2000090
:102FD8004FF004014FF0010205F072FF4FF48060DA
:102FE800C4F200004FF0010104F0A2FF4FF480602A
:102FF800C4F200004FF0010106F050FA07F138075B
:10300800BD4680BD80B584B000AF78604FF4806362
:10301800C4F20003D3ED0B7AB8EE677AD7ED017AE4
:1030280067EE277AFCEEE77A17EE903AFB81FB8988
:103038004FF48060C4F20000194605F057FB07F111
:103048001007BD4680BD00BF80B58EB000AF0346F7
:10305800FB804FF000037B634FF000033B63F9886C
:1030680007F1340207F13003084611461A4600F00A
:10307800BFF84FF00003FB844FF00003BB854FF00F
:10308800000387F82E303B6B9BB203F1FF339BB2F2
:10309800BB847B6B9BB203F1FF33BB624FF06003D1
:1030A8003B614FF00103BB8241F6FF73BB614FF0F8
:1030B8000003BB834FF002033B734FF00003BB7365
:1030C8004FF48043BB604FF00003FB734FF00103E4
:1030D8007B734FF400104FF0010103F0A5FB4FF490
:1030E8008050C4F600004FF00E014FF0020202F0CB
:1030F800F3FB07F108034FF48050C4F600001946AB
:1031080002F064FA4FF400604FF0010103F0B6FBDF
:103118004FF43050C4F2010006F08EFA07F1240390
:103128004FF43050C4F20100194604F03DFD07F198
:1031380010034FF43050C4F20100194605F0C0F8EE
:103148004FF43050C4F201004FF0080105F01CFCA8
:103158004FF43050C4F201004FF0010104F090FE2A
:103168004FF43050C4F201004FF0010106F020F98D
:103178004FF43050C4F201004FF00C014FF001023F
:1031880005F09EFE4FF43050C4F201004FF00101EB
:1031980004F0CEFE4FF43050C4F201004FF00101AC
:1031A80006F07CF907F13807BD4680BD80B584B0CC
:1031B80000AF78604FF43053C4F20103D3ED0B7ABB
:1031C800B8EE677AD7ED017A67EE277AFCEEE77AF0
:1031D80017EE903AFB81FB894FF43050C4F201009E
:1031E800194605F09FFA07F11007BD4680BD00BFDC
:1031F8002DE9F04F91B000AFF860B9607A606B4686
:103208001E46D7ED037AF8EEE77A9FEDA97AC7EE66
:10321800277AFDEEE77AC7ED097A786A08F098F917
:1032280002460B461046194609F0AEF902460B460F
:103238001046194608F08CFC03463B623B6A03F1D2
:10324800FF31F961084602464FF000034FF0010ACA
:103258004FF0000B12EB0A0243EB0B034FEAD2606C
:103268004FEA431940EA09094FEA4218084602465C
:103278004FF000034FF001084FF0000912EB08026D
:1032880043EB09034FEAD2604FEA431505434FEA7F
:1032980042140B4603F101034FEA830303F10303CE
:1032A80003F107034FEAD3034FEAC303ADEB030D62
:1032B8006B4603F103034FEA93034FEA8303BB61B1
:1032C8004FF00103FB634FF001037B614FF00003F4
:1032D800BB634FF00003BB630AE0BB6B03F1010162
:1032E800BB69BA6B43F82210BB6B03F10103BB63E4
:1032F800BA6B3B6A9A42ACBF00230123DBB2002BB6
:10330800EBD138E0BB69FA6B53F822307B617B69FB
:10331800B3F1FF3F2BD0FB6B03F10103BB631DE04F
:10332800BB69BA6B53F82230B3F1FF3F12D0BB69C7
:10333800BA6B53F822307A6993FBF2F2796901FB90
:1033480002F29B1A002B05D1BB69BA6B4FF0FF3113
:1033580043F82210BB6B03F10103BB63BA6B3B6AF2
:103368009A42ACBF00230123DBB2002BD8D1FB6B00
:1033780003F10103FB63FA6B3B6A9A42ACBF00237B
:103388000123DBB2002BBDD14FF00003BB634FF02C
:103398000003BB633EE0BB69BA6B53F82230B3F15C
:1033A800FF3F02D0BB6B3B6330E0BB6B7B6324E029
:1033B800BB697A6B53F82230B3F1FF3F19D03B6BEE
:1033C80003F10102BB69796B53F82110BB6943F81B
:1033D8002210BB697A6B4FF0FF3143F822107B6BE8
:1033E800BB633B6B03F101033B633B6A03F10103DE
:1033F8007B637B6B03F101037B637A6B3B6A9A42C5
:10340800ACBF00230123DBB2002BD1D1BB6B03F18E
:103418000103BB63BA6B3B6A9A42ACBF002301232A
:10342800DBB2002BB7D17B6AFB624FF00103BB62B2
:103438004FF001033B613EE04FF00103BB632CE01A
:10344800BB69BA6B53F822303B613B69B3F1FF3F6C
:1034580030D0FB6A3A6993FBF2F2396901FB02F258
:103468009B1A002B15D1FA6A3B6992FBF3F3FB62B6
:10347800BB6A3A6902FB03F3BB62FA6A4FF6FF7351
:103488009A4206DCBB68FA6A1A607B68BA6A1A60F4
:1034980019E0BB6B03F10103BB63BA6B3B6A9A4249
:1034A800ACBF00230123DBB2002BC9D103E000BF6E
:1034B8004054894C00BFFB6A012BD4BF0023012371
:1034C800DBB2002BB8D1B54607F14407BD46BDE8CD
:1034D800F08F00BF80B582B000AF78607B68B3F131
:1034E800A04F06D07A684FF48073C5F200039A4261
:1034F8000CD14FF080504FF0010103F013FA4FF058
:1035080080504FF0000103F00DFA19E07A684FF48B
:103518008063C5F200039A4206D07A684FF4A0632C
:10352800C5F200039A420BD14FF000504FF0010151
:1035380003F0F8F94FF000504FF0000103F0F2F9F2
:1035480007F10807BD4680BD80B485B000AF78603C
:1035580039604FF00003FB607B68DB68FB60FA684A
:103568004CF20703CFF6FF531340FB603B681A6821
:103578003B685B681A433B689B681A433B68DB6897
:103588001A433B681B691A433B685B691A433B68EB
:103598009B691343FA681343FB607B68FA68DA6037
:1035A8007B681B6BFB60FB6823F00F03FB603B68C9
:1035B8001B7F03F1FF33FA681343FB607B68FA68EB
:1035C8001A6307F11407BD4680BC704780B483B006
:1035D80000AF78607B684FF000021A607B684FF09C
:1035E80000025A607B684FF000029A607B684FF0D7
:1035F8000002DA607B684FF000021A617B684FF0C6
:1036080000025A617B684FF000029A617B684FF0B4
:1036180001021A7707F10C07BD4680BC704700BF4E
:1036280080B485B000AF786039604FF00003FB606C
:103638007B68DB6CFB604FF00003FB603B681B7A28
:1036480003F1FF331A463B681B681A433B685B6803
:103658001A433B68DB684FEA03231A433B681B693C
:103668004FEA83331A433B685B694FEA03531A43B3
:103678003B689B694FEA83631343FB607B68FA6886
:10368800DA6407F11407BD4680BC704780B483B084
:1036980000AF78607B684FF000021A607B684FF0DB
:1036A80000025A607B684FF001021A727B684FF083
:1036B8000102DA607B684FF001021A617B684FF003
:1036C80001025A617B684FF001029A6107F10C0709
:1036D800BD4680BC704700BF80B485B000AF78603D
:1036E80039604FF00003FB607B68B3F1A04F06D050
:1036F8007A684FF48073C5F200039A420DD14FF4F3
:103708004073C5F200039B68FB60FA684FF4875367
:10371800CFF6FC731340FB600CE04FF4E063C5F296
:1037280000039B68FB60FA684FF48753CFF6FC737D
:103738001340FB603B681A683B685B681A433B6848
:103748009B681A433B68DB684FEA03331A433B68BC
:103758001B7C4FEA03231343FA681343FB607B681F
:10376800B3F1A04F06D07A684FF48073C5F2000316
:103778009A4206D14FF44073C5F20003FA689A6082
:1037880005E04FF4E063C5F20003FA689A6007F1B8
:103798001407BD4680BC704780B483B000AF786022
:1037A8007B684FF000021A607B684FF000025A6095
:1037B8007B684FF000029A607B684FF00002DA6085
:1037C8007B684FF000021A7407F10C07BD4680BCF5
:1037D800704700BF80B483B000AF78600B46FB70C1
:1037E800FB78002B06D07B689B6843F001027B685E
:1037F8009A6005E07B689B6843F002027B689A60E8
:1038080007F10C07BD4680BC704700BF80B483B089
:1038180000AF78607B689B6843F000427B689A60E1
:1038280007F10C07BD4680BC704700BF80B483B069
:1038380000AF78607B68D3F8B430184607F10C07FE
:10384800BD4680BC704700BF80B483B000AF7860CD
:1038580039607B683A68C3F8B42007F10C07BD46A5
:1038680080BC704780B483B000AF786039607B68F3
:103878009B6823F080427B689A607B689A683B6803
:103888001A437B689A6007F10C07BD4680BC7047F5
:1038980080B485B000AF78604FF00003FB737B689D
:1038A8009B68002B03DA4FF00103FB7302E04FF033
:1038B8000003FB73FB7B184607F11407BD4680BC69
:1038C800704700BF80B483B000AF78607B689B68A6
:1038D80043F002027B689A6007F10C07BD4680BC82
:1038E800704700BF80B485B000AF78604FF0000328
:1038F800FB737B689B6803F00203002B03D04FF037
:103908000103FB7302E04FF00003FB73FB7B1846D7
:1039180007F11407BD4680BC704700BF80B483B070
:1039280000AF78600B46FB707B689B6823F04052C1
:103938007B689A60FB78002B06D07B689B6843F015
:1039480080527B689A6005E07B689B6843F0005270
:103958007B689A6007F10C07BD4680BC704700BFC2
:1039680080B483B000AF786013460A46FA70BB7023
:10397800BB78002B0CD07B68D3F8B020FB784FF0D5
:10398800010101FA03F31A437B68C3F8B0200DE084
:103998007B68D3F8B020FB784FF0010101FA03F3FC
:1039A8006FEA03031A407B68C3F8B02007F10C07DD
:1039B800BD4680BC704700BF80B483B000AF78605C
:1039C8000B46FB70FB78002B06D07B68DB6843F462
:1039D80000127B68DA6005E07B68DB6823F400127C
:1039E8007B68DA6007F10C07BD4680BC704700BFF2
:1039F80080B483B000AF78600B46FB70FB78002B77
:103A080006D07B68DB6843F480427B68DA6005E0B7
:103A18007B68DB6823F480427B68DA6007F10C0777
:103A2800BD4680BC704700BF80B485B000AF7860E9
:103A380039604FF00003FB607B68DB68FB60FB6864
:103A480023F0E073FB60FA683B681343FB607B6814
:103A5800FA68DA6007F11407BD4680BC704700BFFA
:103A680080B483B000AF786013460A467A803B8002
:103A78007B681B6A23F07F6323F470237A681362E0
:103A88007B681A6A7B884FEA03431A437B681A6289
:103A98007B681B6A23F47F6323F00F037A68136241
:103AA8007B681A6A3B881A437B681A6207F10C071D
:103AB800BD4680BC704700BF80B483B000AF78605B
:103AC80013460A46FA70BB707B685B6A23F47F0270
:103AD8007B685A627B685A6AFB784FEA03431A4349
:103AE8007B685A627B685B6A23F0FF027B685A62D4
:103AF8007B685A6ABB781A437B685A6207F10C07DD
:103B0800BD4680BC704700BF80B483B000AF78600A
:103B180013460A46FA70BB707B689B6A23F47F02DF
:103B28007B689A627B689A6AFB784FEA03431A4378
:103B38007B689A627B689B6A23F0FF027B689A62C3
:103B48007B689A6ABB781A437B689A6207F10C070C
:103B5800BD4680BC704700BF80B485B000AF7860B8
:103B68000B46FB704FF00003FB607B68DB68FB6073
:103B7800FB6823F0F843FB60FB784FEA8363FA683D
:103B88001343FB607B68FA68DA6007F11407BD46E7
:103B980080BC704780B485B000AF78600B46FB707E
:103BA8004FF00003FB607B68D3F8A030FB60FA6835
:103BB8004FF00103CFF6F8731340FB60FB784FF02A
:103BC800010202FA03F3FA681343FB607B68D3F837
:103BD800A020FB681A437B68C3F8A02007F11407EC
:103BE800BD4680BC704700BF80B485B000AF786028
:103BF8000B46FB704FF00003FB607B68D3F8A430E2
:103C0800FB60FA684FF00103CFF6F8731340FB60CE
:103C1800FB784FF0010202FA03F3FA681343FB60E2
:103C28007B68D3F8A420FB681A437B68C3F8A420F8
:103C380007F11407BD4680BC704700BF80B483B04D
:103C480000AF78600B46FB707B68B3F1A04F06D0DD
:103C58007A684FF48073C5F200039A421CD1FB784E
:103C6800002B0CD04FF44073C5F200034FF44072A0
:103C7800C5F20002926842F400029A6028E04FF40C
:103C88004073C5F200034FF44072C5F20002926817
:103C980022F400029A601BE0FB78002B0CD04FF452
:103CA800E063C5F200034FF4E062C5F200029268D7
:103CB80042F400029A600BE04FF4E063C5F200039F
:103CC8004FF4E062C5F20002926822F400029A60A2
:103CD80007F10C07BD4680BC704700BF80B483B0B5
:103CE80000AF78600B46FB707B68B3F1A04F06D03D
:103CF8007A684FF48073C5F200039A421CD1FB78AE
:103D0800002B0CD04FF44073C5F200034FF44072FF
:103D1800C5F20002926842F480029A6028E04FF4EB
:103D28004073C5F200034FF44072C5F20002926876
:103D380022F480029A601BE0FB78002B0CD04FF431
:103D4800E063C5F200034FF4E062C5F20002926836
:103D580042F480029A600BE04FF4E063C5F200037E
:103D68004FF4E062C5F20002926822F480029A6081
:103D780007F10C07BD4680BC704700BF80B483B014
:103D880000AF78600B46FB707B68B3F1A04F06D09C
:103D98007A684FF48073C5F200039A421CD1FB780D
:103DA800002B0CD04FF44073C5F200034FF440725F
:103DB800C5F20002926842F080729A6028E04FF4DF
:103DC8004073C5F200034FF44072C5F200029268D6
:103DD80022F080729A601BE0FB78002B0CD04FF425
:103DE800E063C5F200034FF4E062C5F20002926896
:103DF80042F080729A600BE04FF4E063C5F2000372
:103E08004FF4E062C5F20002926822F080729A6074
:103E180007F10C07BD4680BC704700BF80B485B071
:103E280000AF7860F970BA707B704FF00003FB60E8
:103E38004FF00003BB60BB78042B27D87B681B6B53
:103E4800FB60BA7813464FEA43039B184FEA4303D3
:103E58004FF01F0202FA03F3BB60BB686FEA03036B
:103E6800FA681340FB60F978BA7813464FEA4303BF
:103E78009B184FEA430301FA03F3BB60FA68BB6877
:103E88001343FB607B68FA681A6388E0BB78092BE8
:103E98002BD87B685B6BFB60BA7813464FEA430309
:103EA8009B184FEA4303A3F11E034FF01F0202FAC7
:103EB80003F3BB60BB686FEA0303FA681340FB6057
:103EC800F978BA7813464FEA43039B184FEA43033D
:103ED800A3F11E0301FA03F3BB60FA68BB6813433E
:103EE800FB607B68FA685A6359E0BB780E2B2BD8C5
:103EF8007B689B6BFB60BA7813464FEA43039B18B9
:103F08004FEA4303A3F13C034FF01F0202FA03F305
:103F1800BB60BB686FEA0303FA681340FB60F9787B
:103F2800BA7813464FEA43039B184FEA4303A3F1B9
:103F38003C0301FA03F3BB60FA68BB681343FB60F8
:103F48007B68FA689A632AE07B68DB6BFB60BA7867
:103F580013464FEA43039B184FEA4303A3F15A035E
:103F68004FF01F0202FA03F3BB60BB686FEA03035A
:103F7800FA681340FB60F978BA7813464FEA4303AE
:103F88009B184FEA4303A3F15A0301FA03F3BB60FA
:103F9800FA68BB681343FB607B68FA68DA63FB78EE
:103FA800092B27D97B689B69FB60FA7813464FEA8F
:103FB80043039B18A3F11E034FF0070202FA03F311
:103FC800BB607B689A69BB686FEA03031A407B6829
:103FD8009A617B6899697878FA7813464FEA4303BF
:103FE8009B18A3F11E0300FA03F341EA03027B685E
:103FF8009A6124E07B685B69FB60FB7803F1FF3220
:1040080013464FEA43039B184FF0380202FA03F3B2
:10401800BB607B685A69BB686FEA03031A407B6818
:104028005A617B6859697878FA7813464FEA4303EE
:104038009B1800FA03F341EA03027B685A6107F10F
:104048001407BD4680BC704780B483B000AF786069
:104058000B46FB707B681B6B23F00F027B681A63AF
:104068007B681A6BFB7803F1FF331A437B681A638A
:1040780007F10C07BD4680BC704700BF80B483B011
:1040880000AF786013460A467A803B807B68DB681D
:1040980023F47C627B68DA607B68DA6839887B881D
:1040A8000B439BB21A437B68DA6007F10C07BD46E5
:1040B80080BC704780B483B000AF78607B689B6831
:1040C80043F004027B689A6007F10C07BD4680BC88
:1040D800704700BF80B485B000AF78604FF0000330
:1040E800FB737B689B6803F00403002B03D04FF03D
:1040F8000103FB7302E04FF00003FB73FB7B1846E0
:1041080007F11407BD4680BC704700BF80B483B078
:1041180000AF78607B689B6843F010027B689A6008
:1041280007F10C07BD4680BC704700BF80B485B05E
:1041380000AF78600B46FB704FF00003FB604FF058
:104148000003BB607B68DB68FB60FB6823F46023CB
:10415800FB60FB7803F1FF33BB60BB684FEA434366
:10416800FA681343FB607B68FA68DA6007F11407A2
:10417800BD4680BC704700BF80B483B000AF786094
:104188000B46FB70FB78002B06D07B68DB6843F49A
:1041980080327B68DA6005E07B68DB6823F4803274
:1041A8007B68DA6007F10C07BD4680BC704700BF2A
:1041B80080B483B000AF78607B681B6C9BB21846F4
:1041C80007F10C07BD4680BC704700BF80B485B0BE
:1041D80000AF78604FF00003FB607B68B3F1A04F3D
:1041E80006D07A684FF48073C5F200039A4206D16C
:1041F8004FF44073C5F20003DB68FB6005E04FF441
:10420800E063C5F20003DB68FB60FB68184607F152
:104218001407BD4680BC704780B483B000AF786097
:1042280013460A46FA703B807B681B6E23F0F842FF
:104238007B681A667B681A6EFB784FEA83631A43B9
:104248007B681A667B681B6E23F47F6323F00F0379
:104258007A6813667B681A6E3B881A437B681A660D
:1042680007F10C07BD4680BC704700BF80B483B01F
:1042780000AF786013460A46FA703B807B685B6E35
:1042880023F0F8427B685A667B685A6EFB784FEADF
:1042980083631A437B685A667B685B6E23F47F638B
:1042A80023F00F037A6853667B685A6E3B881A437B
:1042B8007B685A6607F10C07BD4680BC704700BF93
:1042C80080B483B000AF786013460A46FA703B802A
:1042D8007B689B6E23F0F8427B689A667B689A6ECF
:1042E800FB784FEA83631A437B689A667B689B6E08
:1042F80023F47F6323F00F037A6893667B689A6ED2
:104308003B881A437B689A6607F10C07BD4680BC58
:10431800704700BF80B483B000AF786013460A4688
:10432800FA703B807B68DB6E23F0F8427B68DA66C4
:104338007B68DA6EFB784FEA83631A437B68DA6638
:104348007B68DB6E23F47F6323F00F037A68D36600
:104358007B68DA6E3B881A437B68DA6607F10C07DC
:10436800BD4680BC704700BF80B483B000AF7860A2
:104378000B46FB70FB78002B06D07B681B6E43F066
:1043880000427B681A6605E07B681B6E23F00042DA
:104398007B681A6607F10C07BD4680BC704700BFF2
:1043A80080B483B000AF78600B46FB70FB78002BBD
:1043B80006D07B685B6E43F000427B685A6605E076
:1043C8007B685B6E23F000427B685A6607F10C0736
:1043D800BD4680BC704700BF80B483B000AF786032
:1043E8000B46FB70FB78002B06D07B689B6E43F076
:1043F80000427B689A6605E07B689B6E23F000426A
:104408007B689A6607F10C07BD4680BC704700BF01
:1044180080B483B000AF78600B46FB70FB78002B4C
:1044280006D07B68DB6E43F000427B68DA6605E005
:104438007B68DB6E23F000427B68DA6607F10C07C5
:10444800BD4680BC704700BF80B483B000AF7860C1
:104458000B46FB70FB78002B06D07B68DB6843F0CB
:1044680001027B68DA6005E07B68DB6823F0010203
:104478007B68DA6007F10C07BD4680BC704700BF57
:1044880080B483B000AF786039607B68DB6823F064
:1044980002027B68DA607B68DA683B681A437B68EB
:1044A800DA6007F10C07BD4680BC704780B485B060
:1044B80000AF786013460A46FA70BB704FF00003ED
:1044C800FB60FB78092B24D9FA7813464FEA43039B
:1044D8009B18A3F11E034FF0070202FA03F3FB60D7
:1044E8007B689A69FB686FEA03031A407B689A61E4
:1044F8007B689969B878FA7813464FEA43039B18A2
:10450800A3F11E0300FA03F341EA03027B689A61F0
:1045180021E0FB7803F1FF3213464FEA43039B186F
:104528004FF0380202FA03F3FB607B685A69FB68B4
:104538006FEA03031A407B685A617B685969B87847
:10454800FA7813464FEA43039B1800FA03F341EA4B
:1045580003027B685A6107F11407BD4680BC7047A7
:1045680080B483B000AF78607B689B6843F0080232
:104578007B689A6007F10C07BD4680BC704700BF96
:1045880080B483B000AF78607B689B6843F02002FA
:104598007B689A6007F10C07BD4680BC704700BF76
:1045A80080B485B000AF78604FF00003FB737B6880
:1045B8009B6803F00803002B03D04FF00103FB7343
:1045C80002E04FF00003FB73FB7B184607F114076A
:1045D800BD4680BC704700BF80B483B000AF786030
:1045E8000B46FB70FB78002B06D07B68DB6843F03A
:1045F80000727B68DA6005E07B68DB6823F0007294
:104608007B68DA6007F10C07BD4680BC704700BFC5
:1046180080B483B000AF78600B46FB70FB78002B4A
:1046280006D07B68DB6843F480127B68DA6005E0BB
:104638007B68DB6823F480127B68DA6007F10C077B
:10464800BD4680BC704700BF80B485B000AF7860BD
:104658000B46FB704FF00003FB607B68FB60FB7848
:1046680003F1FF334FEA83031A46FB68D31803F1BB
:104678008003FB60FB681B689BB2184607F11407B0
:10468800BD4680BC704700BF80B485B000AFF860FD
:10469800B9601346FB71FB79002B06D0FB685A689A
:1046A800BB681A43FB685A6007E0FB685A68BB6836
:1046B8006FEA03031A40FB685A6007F11407BD4606
:1046C80080BC704780B485B000AF786039604FF027
:1046D8000003FB737B681A683B681340002B03D008
:1046E8004FF00103FB7302E04FF00003FB73FB7B09
:1046F800184607F11407BD4680BC704780B483B0E4
:1047080000AF786039607B683A681A6007F10C0777
:10471800BD4680BC704700BF80B485B000AF7860EC
:1047280039604FF00003FB604FF00003FB727B68B9
:10473800B3F1A04F06D07A684FF48073C5F2000336
:104748009A4206D14FF44073C5F200031B68FB6020
:1047580005E04FF4E063C5F200031B68FB60FA68EC
:104768003B681340002B03D04FF00103FB7202E0BB
:104778004FF00003FB72FB7A184607F11407BD4699
:1047880080BC704780B483B000AF786039607B68C4
:10479800B3F1A04F06D07A684FF48073C5F20003D6
:1047A8009A420CD14FF44073C5F200034FF44072A3
:1047B800C5F2000211683A680A431A600BE04FF428
:1047C800E063C5F200034FF4E062C5F2000211682D
:1047D8003A680A431A6007F10C07BD4680BC704767
:1047E80080B485B000AF786039604FF00003FB7388
:1047F8004FF00003BB814FF000037B817B681B688F
:104808009AB23B689BB21340BB817B685B689AB2E3
:104818003B689BB213407B81BB89002B06D07B8908
:10482800002B03D04FF00103FB7302E04FF00003AD
:10483800FB73FB7B184607F11407BD4680BC704725
:1048480080B483B000AF786039607B681A683B68D1
:104858001A437B681A6007F10C07BD4680BC704795
:1048680080B483B000AF78607A684FF01C03C4F25C
:104878000103D3184FF000021A6007F10C07BD4678
:1048880080BC704780B485B000AF786039604FF065
:104898000003FB607A684FF01C03C4F20103D318CD
:1048A8001B68FB60FB6803F00303FB603B681A6846
:1048B8003B685B681A433B689B681A433B681B6903
:1048C8001A433B68DB681A433B685B691A433B68D9
:1048D8009B691343FA681343FB607A684FF01C0323
:1048E800C4F20103D318FA681A6007F11407BD4629
:1048F80080BC704780B483B000AF78607B684FF0AD
:1049080000021A607B684FF000025A607B684FF023
:1049180000029A607B684FF00002DA607B684FF013
:1049280000021A617B684FF000025A617B684FF001
:104938000C029A6107F10C07BD4680BC704700BFA6
:1049480080B483B000AF78600B46FB70FB78002B17
:1049580011D07A684FF01C03C4F20103D3181A4629
:1049680079684FF01C03C4F20103CB181B6843F0AD
:104978000103136010E07A684FF01C03C4F20103CE
:10498800D3181A4679684FF01C03C4F20103CB18F8
:104998001B6823F00103136007F10C07BD4680BCB8
:1049A800704700BF80B483B000AF78600B46FB70DF
:1049B800FB78002B11D07A684FF01C03C4F2010376
:1049C800D3181A4679684FF01C03C4F20103CB18B8
:1049D8001B6843F00203136010E07A684FF01C0371
:1049E800C4F20103D3181A4679684FF01C03C4F2C5
:1049F8000103CB181B6823F00203136007F10C07AF
:104A0800BD4680BC704700BF80B485B000AF7860F9
:104A18004FF00003FB607A684FF01C03C4F20103F7
:104A2800D3181B6803F08043002B03D04FF080435A
:104A3800FB6002E04FF00003FB60FB68184607F1DB
:104A48001407BD4680BC704780B483B000AF78605F
:104A58000B46FB70FB78002B11D07A684FF01C03D3
:104A6800C4F20103D3181A4679684FF01C03C4F244
:104A78000103CB181B6843F40073136010E07A68D5
:104A88004FF01C03C4F20103D3181A4679684FF09B
:104A98001C03C4F20103CB181B6823F400731360D2
:104AA80007F10C07BD4680BC704700BF80B483B0D7
:104AB80000AF78607A684FF01C03C4F20103D31882
:104AC8001A4679684FF01C03C4F20103CB181B681F
:104AD80043F00043136007F10C07BD4680BC7047E4
:104AE80080B483B000AF78607B681A684FF6FE73B5
:104AF80013407A6813607B684FF000021A607B6885
:104B08004FF000025A607B684FF000029A607B68A1
:104B18004FF00002DA607A684FF00803C4F202032B
:104B28009A420CD14FF00003C4F202034FF0000286
:104B3800C4F20202526842F00F025A60DAE07A6860
:104B48004FF01C03C4F202039A420CD14FF0000349
:104B5800C4F202034FF00002C4F20202526842F0AB
:104B6800F0025A60C6E07A684FF03003C4F20203DC
:104B78009A420CD14FF00003C4F202034FF0000236
:104B8800C4F20202526842F470625A60B2E07A6873
:104B98004FF04403C4F202039A420CD14FF00003D1
:104BA800C4F202034FF00002C4F20202526842F457
:104BB80070425A609EE07A684FF05803C4F20203CC
:104BC8009A420CD14FF00003C4F202034FF00002E6
:104BD800C4F20202526842F470225A608AE07A688B
:104BE8004FF06C03C4F202039A420CD14FF0000359
:104BF800C4F202034FF00002C4F20202526842F407
:104C080070025A6076E07A684FF08003C4F20203BB
:104C18009A420CD14FF00003C4F202034FF0000295
:104C2800C4F20202526842F070625A6062E07A6826
:104C38004FF48163C4F202039A420CD14FF48063AB
:104C4800C4F202034FF48062C4F20202526842F0D6
:104C58000F025A604EE07A6840F21C43C4F2020325
:104C68009A420CD14FF48063C4F202034FF480627D
:104C7800C4F20202526842F0F0025A603AE07A68DE
:104C88004FF48663C4F202039A420CD14FF4806356
:104C9800C4F202034FF48062C4F20202526842F482
:104CA80070625A6026E07A6840F24443C4F2020314
:104CB8009A420CD14FF48063C4F202034FF480622D
:104CC800C4F20202526842F470425A6012E07A68F2
:104CD8004FF48B63C4F202039A420BD14FF4806302
:104CE800C4F202034FF48062C4F20202526842F432
:104CF80070225A6007F10C07BD4680BC704700BFA0
:104D080080B485B000AF786039604FF00003FB6075
:104D18007B681B68FB60FB6823F4FF4323F0700388
:104D2800FB603B689A683B681B6A1A433B681B69CF
:104D38001A433B685B691A433B689B691A433B68A3
:104D4800DB691A433B685B6A1A433B689B6A1343F7
:104D5800FA681343FB607B68FA681A603B689B89B2
:104D68001A467B685A603B681A687B689A603B6899
:104D78005A687B68DA6007F11407BD4680BC704743
:104D880080B483B000AF78607B684FF000021A608F
:104D98007B684FF000025A607B684FF000029A600F
:104DA8007B684FF000029A817B684FF000021A611D
:104DB8007B684FF000025A617B684FF000029A61ED
:104DC8007B684FF00002DA617B684FF000021A62DC
:104DD8007B684FF000025A627B684FF000029A62CB
:104DE80007F10C07BD4680BC704700BF80B483B094
:104DF80000AF78600B46FB70FB78002B06D07B6811
:104E08001B6843F001027B681A6006E07B681A6839
:104E18004FF6FE7313407A68136007F10C07BD461E
:104E280080BC704780B483B000AF78600B467B804D
:104E38007A887B685A6007F10C07BD4680BC7047CA
:104E480080B483B000AF78607B685B689BB218461B
:104E580007F10C07BD4680BC704700BF80B485B021
:104E680000AFF860B9601346FB71FB79002B06D0E0
:104E7800FB681A68BB681A43FB681A6007E0FB689E
:104E88001A68BB686FEA03031A40FB681A6007F1E7
:104E98001407BD4680BC704780B485B000AF786009
:104EA8004FF00003FB734FF00003BB607B6803F017
:104EB8008053002B06D04FF48063C4F202031B68B2
:104EC800BB6005E04FF00003C4F202031B68BB603F
:104ED800BA687B681340002B03D04FF00103FB73C3
:104EE80002E04FF00003FB73FB7B184607F1140741
:104EF800BD4680BC704700BF80B483B000AF786007
:104F08007B6803F08053002B06D04FF48063C4F213
:104F180002037A685A6005E04FF00003C4F2020306
:104F28007A685A6007F10C07BD4680BC704700BF1D
:104F380080B485B000AF78604FF00003FB734FF08A
:104F48000003BB607B6803F08053002B06D04FF44E
:104F58008063C4F202031B68BB6005E04FF00003E6
:104F6800C4F202031B68BB60BA687B681340002B5D
:104F780003D04FF00103FB7302E04FF00003FB7313
:104F8800FB7B184607F11407BD4680BC704700BF7D
:104F980080B483B000AF78607B6803F08053002B47
:104FA80006D04FF48063C4F202037A685A6005E0C1
:104FB8004FF00003C4F202037A685A6007F10C0745
:104FC800BD4680BC704700BF80B400AF4FF480631B
:104FD800C4F201034FF0FC521A604FF48063C4F22C
:104FE80001034FF000025A604FF48063C4F20103DA
:104FF8004FF000029A604FF48063C4F201034FF04F
:105008000002DA604FF48063C4F201034FF000023B
:105018001A614FF48063C4F201036FF0FC525A61C5
:105028004FF48063C4F201034FF00C021A624FF48C
:105038008063C4F201034FF000025A624FF48063A8
:10504800C4F201034FF000029A624FF48063C4F285
:1050580001034FF00002DA624FF48063C4F20103E7
:105068004FF000021A634FF48063C4F201034FF05B
:1050780003025A63BD4680BC704700BF80B485B048
:1050880000AF78604FF00003FB604FF48063C4F218
:105098000103FB607B689B79002B00F011817B6822
:1050A8001B684FEA531303F1007303F502634FEAD9
:1050B80043131A467B681B684FEA531303F10073C6
:1050C80003F502634FEA431319687B681B6803F012
:1050D8001F034FF0010000FA03F36FEA03030B40CC
:1050E80013607B681B684FEA53134FEA431240F280
:1050F8000443C4F20103D3181A467B681B684FEABD
:1051080053134FEA431140F20443C4F20103CB188E
:1051180019687B681B6803F01F034FF0010000FA51
:1051280003F36FEA03030B4013607B681B791A468D
:105138007B681B684FEA53134FEA4313D318FA6886
:10514800D318FB60FB68FA6811687A68126802F085
:105158001F024FF0010000FA02F20A431A604FF4EE
:105168008063C4F20103FB607B681B684FEA53133A
:105178004FEA43124FF48163C4F20103D3181A466D
:105188007B681B684FEA53134FEA43114FF481635E
:10519800C4F20103CB1819687B681B6803F01F036E
:1051A8004FF0010000FA03F36FEA03030B401360AA
:1051B8007B681B684FEA53134FEA431240F20C43D3
:1051C800C4F20103D3181A467B681B684FEA5313CD
:1051D8004FEA431140F20C43C4F20103CB1819689B
:1051E8007B681B6803F01F034FF0010000FA03F30C
:1051F8006FEA03030B4013607B685B79102B44D183
:105208007B681B684FEA53134FEA43124FF48163DC
:10521800C4F20103D3181A467B681B684FEA53137C
:105228004FEA43114FF48163C4F20103CB181968A4
:105238007B681B6803F01F034FF0010000FA03F3BB
:105248000B4313607B681B684FEA53134FEA431202
:1052580040F20C43C4F20103D3181A467B681B685A
:105268004FEA53134FEA431140F20C43C4F20103CF
:10527800CB1819687B681B6803F01F034FF0010007
:1052880000FA03F30B43136036E07B685B791A4638
:105298007B681B684FEA53134FEA4313D318FA6825
:1052A800D318FB60FB68FA6811687A68126802F024
:1052B8001F024FF0010000FA02F20A431A601BE0D5
:1052C8007B681B791A467B681B684FEA53134FEAC1
:1052D8004313D318FA68D318FB60FB68FA6811689F
:1052E8007A68126802F01F024FF0010000FA02F219
:1052F8006FEA02020A401A6007F11407BD4680BC33
:10530800704700BF80B483B000AF78607B684FF00F
:1053180000021A607B684FF000021A717B684FF038
:1053280010025A717B684FF000029A7107F10C075E
:10533800BD4680BC704700BF80B483B000AF7860C2
:105348007B684FEA53134FEA43124FF48263C4F267
:105358000103D3181A467B684FEA53134FEA4311E7
:105368004FF48263C4F20103CB1819687B6803F019
:105378001F034FF0010000FA03F30B43136007F11A
:105388000C07BD4680BC704780B485B000AF78601C
:105398004FF00003FB737B684FEA53134FEA431245
:1053A80040F21443C4F20103D3181A687B6803F06F
:1053B8001F034FF0010101FA03F31340002B03D040
:1053C8004FF00103FB7302E04FF00003FB73FB7B1C
:1053D800184607F11407BD4680BC704780B483B0F7
:1053E80000AF78607B684FEA53134FEA431240F2EC
:1053F8001443C4F20103D3187A6802F01F024FF075
:10540800010101FA02F21A6007F10C07BD4680BCDF
:10541800704700BF80B485B000AF78604FF00003DC
:10542800FB734FF00003BB607B684FEA531303F133
:10543800007303F502634FEA43131A687B6803F0AD
:105448001F034FF0010101FA03F31340BB607B68AF
:105458004FEA53134FEA431240F21443C4F20103D4
:10546800D3181A687B6803F01F034FF0010101FA93
:1054780003F31340002B06D0BB68002B03D04FF07A
:105488000103FB7302E04FF00003FB73FB7B18463C
:1054980007F11407BD4680BC704700BF80B483B0D5
:1054A80000AF78607B684FEA53134FEA431240F22B
:1054B8001443C4F20103D3187A6802F01F024FF0B4
:1054C800010101FA02F21A6007F10C07BD4680BC1F
:1054D800704700BF80B582B000AF78607B68B3F1D9
:1054E800904F0CD14FF400304FF0010101F01AFA3F
:1054F8004FF400304FF0000101F014FA62E07A68CE
:105508004FF48063C4F600039A420CD14FF4802014
:105518004FF0010101F006FA4FF480204FF000012E
:1055280001F000FA4EE07A684FF40063C4F6000315
:105538009A420CD14FF400204FF0010101F0F2F92A
:105548004FF400204FF0000101F0ECF93AE07A68DE
:105558004FF44063C4F600039A420CD14FF4801014
:105568004FF0010101F0DEF94FF480104FF0000117
:1055780001F0D8F926E07A684FF48053C4F60003A6
:105588009A420CD14FF400104FF0010101F0CAF912
:105598004FF400104FF0000101F0C4F912E07A68EE
:1055A8004FF4A053C4F600039A420BD14FF4800085
:1055B8004FF0010101F0B6F94FF480004FF00001FF
:1055C80001F0B0F907F10807BD4680BD80B487B087
:1055D80000AF786039604FF000037B614FF0000343
:1055E8003B614FF00003FB604FF000037B618CE0F0
:1055F8007B694FF0010202FA03F33B613B681A68CA
:105608003B691340FB60FA683B699A4279D13B6871
:105618001B79012B03D03B681B79022B3AD17B689D
:105628009A687B694FEA43034FF0030101FA03F3D9
:105638006FEA03031A407B689A607B689A683B6844
:105648005B7919467B694FEA430301FA03F31A436E
:105658007B689A607B689B889AB27B699BB24FF0A3
:10566800010101FA03F39BB26FEA03039BB21340F3
:105678009AB27B689A807B689B889AB23B689B79D0
:1056880019467B699BB201FA03F39BB213439AB2A2
:105698007B689A807B681A687B694FEA43034FF0FE
:1056A800030101FA03F36FEA03031A407B681A60E7
:1056B8007B681A683B681B7919467B694FEA430384
:1056C80001FA03F31A437B681A607B68DA687B691E
:1056D8009BB24FEA43034FF0030101FA03F36FEA69
:1056E80003031A407B68DA607B68DA683B68DB7919
:1056F80019467B694FEA430301FA03F31A437B68AF
:10570800DA607B6903F101037B617B690F2B7FF60C
:105718006FAF07F11C07BD4680BC704780B483B0EB
:1057280000AF78607B684FF6FF721A607B684FF0B5
:1057380000021A717B684FF002025A717B684FF0C1
:1057480000029A717B684FF00002DA7107F10C07CA
:10575800BD4680BC704700BF80B485B000AF78609C
:105768000B467B804FF48033FB607B88FA681343D9
:10577800FB607B68FA68DA617A887B68DA617B6843
:10578800FA68DA617B68DB69FB607B68DB69FB6070
:1057980007F11407BD4680BC704700BF80B485B0D0
:1057A80000AF78600B467B804FF00003FB737B688B
:1057B8001B8A9AB27B8813409BB2002B03D04FF010
:1057C8000103FB7302E04FF00003FB73FB7B1846F9
:1057D80007F11407BD4680BC704700BF80B483B092
:1057E80000AF78607B681B8A9BB2184607F10C07EC
:1057F800BD4680BC704700BF80B485B000AF7860FC
:105808000B467B804FF00003FB737B689B8A9AB240
:105818007B8813409BB2002B03D04FF00103FB732E
:1058280002E04FF00003FB73FB7B184607F11407F7
:10583800BD4680BC704700BF80B483B000AF7860BD
:105848007B689B8A9BB2184607F10C07BD4680BC53
:10585800704700BF80B483B000AF78600B467B8090
:105868007A887B689A6107F10C07BD4680BC70474F
:1058780080B483B000AF78600B467B807B687A8801
:105888001A8507F10C07BD4680BC704780B483B009
:1058980000AF786013460A467A807B707B78002BCD
:1058A80003D07A887B689A6102E07B687A881A85D7
:1058B80007F10C07BD4680BC704700BF80B483B0B9
:1058C80000AF78600B467B807B687A889A8207F104
:1058D8000C07BD4680BC704780B485B000AF7860C7
:1058E80013460A467A807B704FF00003FB604FF046
:1058F8000003BB607A787B8803F007034FEA8303D1
:1059080002FA03F3FB607B884FEAD3039BB21A4683
:105918007B884FEAD3039BB219467B6801F10801E3
:1059280053F821107B8803F007034FEA83034FF0F5
:105938000F0000FA03F36FEA030319407B6802F1D2
:10594800080243F822107B884FEAD3039BB21A4619
:105958007B6802F1080253F82220FB681343BB60FE
:105968007B884FEAD3039BB21A467B6802F1080290
:10597800B96843F8221007F11407BD4680BC704788
:1059880080B483B000AF78604FF46D43CEF200036B
:105998007A6842F0BF6242F40032DA6007F10C071D
:1059A800BD4680BC704700BF80B487B000AF786048
:1059B8004FF000037B614FF000033B614FF00F0392
:1059C800FB607B68DB78002B47D04FF46D43CEF249
:1059D8000003DB686FEA030303F4E0634FEA132371
:1059E8007B617B69C3F104033B617B69FA6822FA36
:1059F80003F3FB607B685B781A463B6902FA03F3A2
:105A08007B617B689B781A46FB6813407A6913436D
:105A18007B617B694FEA03137B614FF46143CEF2EC
:105A280000037A68127811467A69D2B25B1883F853
:105A380000234FF46143CEF200037A6812784FEAEC
:105A48005212D2B27968097801F01F014FF00100B3
:105A580000FA01F143F8221014E04FF46143CEF24A
:105A680000037A6812784FEA5212D2B2796809783C
:105A780001F01F014FF0010000FA01F102F12002CC
:105A880043F8221007F11C07BD4680BC704700BFD1
:105A980080B483B000AF786039604FF46D43CEF2C4
:105AA80000033A6822F0604222F07F0279680A43D4
:105AB8009A6007F10C07BD4680BC704780B483B07C
:105AC80000AF02460B46FA71BB71BB79002B0CD0B4
