:020000040800F2
:1000000000A000200D55000859550008FD06000805
:10001000050700080D07000815070008000000008C
:1000200000000000000000000000000019050008AA
:1000300059550008000000009D0500081906000839
:1000400059550008595500085955000859550008D8
:1000500059550008595500085955000859550008C8
:1000600059550008595500085955000859550008B8
:1000700059550008595500085955000859550008A8
:100080005955000859550008595500085955000898
:100090005955000859550008595500085955000888
:1000A00059550008595500083104000859550008F1
:1000B0005955000859550008595500085955000868
:1000C0005955000859550008595500085955000858
:1000D0005955000859550008595500085955000848
:1000E0005955000859550008595500085955000838
:1000F0005955000859550008595500085955000828
:100100000000000000000000000000005955000839
:100110005955000859550008595500085955000807
:1001200059550008595500085955000859550008F7
:100130005955000859550008000000000000000053
:10014000595500085955000859550008000000008D
:10015000000000000000000000000000000000009F
:100160000000000000000000595500085955000823
:1001700059550008000000000000000000000000C9
:080180000000000059550008C1
:1001880010B5054C237833B9044810B10448AFF3CF
:1001980000800121217010BD6804002000000000CB
:1001A8008056000808B5064B1BB106480649AFF350
:1001B80000800648016811B1054A02B1904708BDA0
:1001C80000000000805600086C040020680400202D
:1001D8000000000080B582B000AF4FF000037B60E4
:1001E8004FF000037B600DE04FF48050C4F6000030
:1001F8004FF403414FF0010200F0CCFE7B6803F19D
:1002080001037B607A6847F2FF03C0F202039A4257
:10021800CCBF00230123DBB2002BE5D14FF0000354
:100228007B600DE04FF48050C4F600004FF40341AA
:100238004FF0000200F0AEFE7B6803F101037B6023
:100248007A6847F2FF03C0F202039A42CCBF002348
:100258000123DBB2002BE5D107F10807BD4680BDBD
:1002680080B588B000AF4FF4E1333B604FF0000336
:100278007B614FF00C033B614FF00003FB604FF0D4
:100288000003BB604FF000037B604FF4C063BB61A9
:100298004FF002033B774FF00003BB774FF00303A7
:1002A8007B774FF00003FB774FF480404FF001015C
:1002B80001F068FE4FF400304FF0010101F038FE04
:1002C8004FF090404FF009014FF0070200F088FE10
:1002D8004FF090404FF00A014FF0070200F080FE07
:1002E80007F118034FF09040194600F0F3FC3B4625
:1002F8004FF46050C4F20100194604F01FF94FF49E
:100308006050C4F201004FF0010104F041FA00BF4F
:100318004FF46050C4F201004FF4800104F07CFEF9
:100328000346002B14BF00230123DBB2002BEFD1BF
:1003380000BF4FF46050C4F201004FF4001104F004
:100348006BFE0346002B14BF00230123DBB2002BF6
:10035800EFD107F12007BD4680BD00BF80B586B04C
:1003680000AF4FF400104FF0010101F0E1FD4FF430
:100378003F433B614FF001033B754FF00003FB75B2
:100388004FF00003BB754FF002037B7507F11003B4
:100398004FF48050C4F60000194600F09BFC4FF063
:1003A80036033B734FF006037B734FF00003BB73B8
:1003B8004FF00103FB7307F10C03184600F078FEB9
:1003C8004FF010004FF0010101F006FE40F28333B8
:1003D8007B6041F61F433B804FF00003BB724FF038
:1003E80000033B814FF000037B803B464FF4805075
:1003F800C4F20000194602F027F84FF48050C4F206
:1004080000004FF001014FF0010203F077FC4FF4B8
:100418008050C4F200004FF0010102F0D9F907F151
:100428001807BD4680BD00BF80B582B000AF4FF44D
:100438009040C4F201004FF0010103F0EBFC4FF0D3
:1004480000037B604FF000037B604FE040F2904375
:10045800C2F200037A684FF0940101FB02F29B1884
:1004680003F190031B68002B3CDD40F29043C2F27D
:1004780000037A684FF0940101FB02F29B1803F124
:1004880090031B6803F1FF3240F29043C2F200036D
:1004980079684FF0940000FB01F15B1803F19003B9
:1004A8001A6040F29043C2F200037A684FF0940158
:1004B80001FB02F29B1803F190031B68002B11D17A
:1004C80040F66023C2F200037A681A604FF46D4365
:1004D800CEF200034FF46D42CEF20002526842F0B1
:1004E80080525A607B6803F101037B6040F6582311
:1004F800C2F200031B687A689A42ACBF002301234A
:10050800DBB2002BA2D107F10807BD4680BD00BFB2
:1005180080B400AF40F28C43C2F200031B6803F1C1
:10052800010240F28C43C2F200031A6040F28C438D
:10053800C2F200031A6840F65823C2F200031B688F
:100548009A4206DB40F28C43C2F200034FF00002ED
:100558001A6040F28C43C2F200031A6840F29043DA
:10056800C2F200034FF0940101FB02F29B1803F161
:1005780004031B681A4640F67423C2F200031A608B
:10058800924640F67423C2F200031A605047BD46F3
:1005980080BC704780B400AF4FF46D43CEF20003C7
:1005A8004FF46D42CEF20002526842F000625A6087
:1005B80040F66023C2F200031A6840F29043C2F288
:1005C80000034FF0940101FB02F29B1803F10C03A6
:1005D8001A6840F67423C2F200031A6040F66023DA
:1005E800C2F200031A6840F65C23C2F200031A60E4
:1005F80062B640F67423C2F200031B681A4610471D
:1006080040F67423C2F200031A60BD4680BC7047EE
:1006180080B400AF40F28C43C2F200031B6803F1C0
:10062800010240F28C43C2F200031A6040F28C438C
:10063800C2F200031A6840F29043C2F200034FF07E
:10064800940101FB02F29B1803F190031B68002B35
:100658000BDD40F28C43C2F200031B6803F1010278
:1006680040F28C43C2F200031A6040F28C43C2F29B
:1006780000031A6840F65823C2F200031B689A4226
:1006880006DB40F28C43C2F200034FF000021A600E
:1006980040F28C43C2F200031A6840F29043C2F25F
:1006A80000034FF0940101FB02F29B1803F10403CD
:1006B8001B681A4640F67423C2F200031A6040F21F
:1006C8008C43C2F200031A6840F65C23C2F20003AE
:1006D8001A6062B640F67423C2F200031B681A4619
:1006E800104740F67423C2F200031A60BD4680BC6E
:1006F800704700BF80B400AFFEE700BF80B400AF12
:10070800FEE700BF80B400AFFEE700BF80B400AFD3
:10071800FEE700BF80B500AF4FF48050C4F600007C
:100728004FF480714FF0010200F034FC0BE040F60A
:100738006423C2F200031B6803F1010240F664233C
:10074800C2F200031A6040F66423C2F200031A687A
:1007580044F23F23C0F20F039A42CCBF0023012387
:10076800DBB2002BE3D140F66423C2F200034FF062
:1007780000021A604FF48050C4F600004FF48071F4
:100788004FF0000200F006FCFFF742BFC4E700BFCD
:1007980080B500AF4FF48050C4F600004FF40071EC
:1007A8004FF0010200F0F6FB0BE040F66823C2F2BE
:1007B80000031B6803F1010240F66823C2F200033C
:1007C8001A6040F66823C2F200031A6844F23F2315
:1007D800C0F20F039A42CCBF00230123DBB2002BE7
:1007E800E3D140F66823C2F200034FF000021A601A
:1007F8004FF48050C4F600004FF400714FF000022F
:1008080000F0C8FBFFF704BFC4E700BF80B500AF26
:100818004FF48050C4F600004FF400414FF001023D
:1008280000F0B8FB0BE040F66C23C2F200031B6833
:1008380003F1010240F66C23C2F200031A6040F68D
:100848006C23C2F200031A6844F23F23C0F20F037C
:100858009A42CCBF00230123DBB2002BE3D140F640
:100868006C23C2F200034FF000021A604FF480506C
:10087800C4F600004FF400414FF0000200F08AFB7C
:10088800FFF7C6BEC4E700BF80B500AF04F066FC42
:10089800FFF7E6FC00F06EF840F66423C2F20003AE
:1008A8004FF000021A6040F66823C2F200034FF0CE
:1008B80000021A6000F050F940F21D70C0F6000006
:1008C80000F0E0F840F29970C0F6000000F0DAF8A5
:1008D80040F61500C0F6000000F0D4F8FFF798BE07
:1008E800FEE700BF80B584B000AF4FF01A033B733A
:1008F8004FF000037B734FF00003BB734FF001030D
:10090800FB7307F10C03184600F0D2FB4FF480206C
:100918004FF0010101F036FB4FF009037B6041F60F
:100928001F433B804FF00003BB724FF000033B8135
:100938004FF000037B803B464FF49040C4F2010027
:10094800194601F081FD4FF49040C4F201004FF0C8
:1009580001014FF0010203F0D1F94FF49040C4F2C5
:1009680001004FF0010101F033FF07F11007BD4608
:1009780080BD00BF80B582B000AF4FF400104FF0CB
:10098800010101F0D5FA4FF43F433B604FF00103FA
:100998003B714FF00003FB714FF00003BB714FF048
:1009A80002037B713B464FF48050C4F600001946A1
:1009B80000F090F907F10807BD4680BD90B482B0F9
:1009C80000AFEFF3088004467C607B68184607F1A7
:1009D8000807BD4690BC704790B482B000AFEFF3F3
:1009E80008842DE9F00F84F308887C6007F1080774
:1009F800BD4690BC704700BF90B482B000AFEFF323
:100A08000884BDE8F00F84F308887C6007F10807C4
:100A1800BD4690BC704700BF80B485B000AF786019
:100A28007B684FF000029A607B684FF000025A60C2
:100A38007B684FF001021A604FF00003FB604FF033
:100A48000003FB600BE07B68FA6802F104024FF0D8
:100A5800000143F82210FB6803F10103FB60FB6807
:100A68001F2BCCBF00230123DBB2002BEBD17B680B
:100A78004FF00002C3F8902007F11407BD4680BC70
:100A8800704700BF80B582B000AF786040F6582349
:100A9800C2F200031B68092B56DC40F65823C2F249
:100AA80000031B684FF0940202FB03F240F29043EC
:100AB800C2F20003D3181846FFF7AEFF40F65823DA
:100AC800C2F200031A6840F29043C2F200034FF0EA
:100AD800940101FB02F29B1803F104037A681A607F
:100AE80040F65823C2F20003196840F65823C2F2B0
:100AF80000031B6803F1010240F29043C2F20003B5
:100B08004FF0940000FB01F15B181A6040F658237F
:100B1800C2F200031B6803F1010240F65823C2F237
:100B280000031A6040F65823C2F200031B6803F161
:100B3800FF3240F29043C2F200034FF0940101FBF0
:100B480002F29B181B6801E04FF0FF33184607F1CB
:100B58000807BD4680BD00BF80B500AF40F28C439A
:100B6800C2F200034FF000021A6040F65823C2F2A6
:100B780000034FF000021A6040F65C23C2F2000343
:100B88004FF0FF321A604EF63473CEF200034FF086
:100B980080421A60FFF7A6FE62B680BD80B483B0BB
:100BA80000AF786072B640F65C23C2F200031968A1
:100BB8007A6840F29043C2F200034FF0940000FBC1
:100BC80001F15B1803F190031A60FFF721BD62B6CB
:100BD80007F10C07BD4680BC704700BF80B582B0E6
:100BE80000AF78607B68B3F1904F0CD14FF40030C0
:100BF8004FF0010101F01AFA4FF400304FF00001F4
:100C080001F014FA62E07A684FF48063C4F60003D6
:100C18009A420CD14FF480204FF0010101F006FAFE
:100C28004FF480204FF0000101F000FA4EE07A689E
:100C38004FF40063C4F600039A420CD14FF400202D
:100C48004FF0010101F0F2F94FF400204FF00001DC
:100C580001F0ECF93AE07A684FF44063C4F6000317
:100C68009A420CD14FF480104FF0010101F0DEF9E7
:100C78004FF480104FF0000101F0D8F926E07A68AF
:100C88004FF48053C4F600039A420CD14FF400107D
:100C98004FF0010101F0CAF94FF400104FF00001C4
:100CA80001F0C4F912E07A684FF4A053C4F60003C7
:100CB8009A420BD14FF480004FF0010101F0B6F9D0
:100CC8004FF480004FF0000101F0B0F907F1080778
:100CD800BD4680BD80B487B000AF786039604FF002
:100CE80000037B614FF000033B614FF00003FB60A2
:100CF8004FF000037B618CE07B694FF0010202FA40
:100D080003F33B613B681A683B691340FB60FA6870
:100D18003B699A4279D13B681B79012B03D03B6828
:100D28001B79022B3AD17B689A687B694FEA4303A7
:100D38004FF0030101FA03F36FEA03031A407B68DB
:100D48009A607B689A683B685B7919467B694FEAC9
:100D5800430301FA03F31A437B689A607B689B8814
:100D68009AB27B699BB24FF0010101FA03F39BB27F
:100D78006FEA03039BB213409AB27B689A807B6840
:100D88009B889AB23B689B7919467B699BB201FAAA
:100D980003F39BB213439AB27B689A807B681A6804
:100DA8007B694FEA43034FF0030101FA03F36FEA4B
:100DB80003031A407B681A607B681A683B681B79D2
:100DC80019467B694FEA430301FA03F31A437B6828
:100DD8001A607B68DA687B699BB24FEA43034FF07D
:100DE800030101FA03F36FEA03031A407B68DA6030
:100DF8007B68DA683B68DB7919467B694FEA43030D
:100E080001FA03F31A437B68DA607B6903F1010393
:100E18007B617B690F2B7FF66FAF07F11C07BD461F
:100E280080BC704780B483B000AF78607B684FF6B1
:100E3800FF721A607B684FF000021A717B684FF0EE
:100E480002025A717B684FF000029A717B684FF07A
:100E58000002DA7107F10C07BD4680BC704700BF7D
:100E680080B485B000AF78600B467B804FF4803348
:100E7800FB607B88FA681343FB607B68FA68DA6179
:100E88007A887B68DA617B68FA68DA617B68DB6993
:100E9800FB607B68DB69FB6007F11407BD4680BC1B
:100EA800704700BF80B485B000AF78600B467B8088
:100EB8004FF00003FB737B681B8A9AB27B88134050
:100EC8009BB2002B03D04FF00103FB7302E04FF0FD
:100ED8000003FB73FB7B184607F11407BD4680BC73
:100EE800704700BF80B483B000AF78607B681B8A0E
:100EF8009BB2184607F10C07BD4680BC704700BF7F
:100F080080B485B000AF78600B467B804FF000035B
:100F1800FB737B689B8A9AB27B8813409BB2002B39
:100F280003D04FF00103FB7302E04FF00003FB73A3
:100F3800FB7B184607F11407BD4680BC704700BF0D
:100F480080B483B000AF78607B689B8A9BB21846F8
:100F580007F10C07BD4680BC704700BF80B483B062
:100F680000AF78600B467B807A887B689A6107F1CE
:100F78000C07BD4680BC704780B483B000AF786072
:100F88000B467B807B687A881A8507F10C07BD467B
:100F980080BC704780B483B000AF786013460A46BF
:100FA8007A807B707B78002B03D07A887B689A6183
:100FB80002E07B687A881A8507F10C07BD4680BC79
:100FC800704700BF80B483B000AF78600B467B8069
:100FD8007B687A889A8207F10C07BD4680BC704707
:100FE80080B485B000AF786013460A467A807B707B
:100FF8004FF00003FB604FF00003BB607A787B88FA
:1010080003F007034FEA830302FA03F3FB607B88CC
:101018004FEAD3039BB21A467B884FEAD3039BB2AD
:1010280019467B6801F1080153F821107B8803F009
:1010380007034FEA83034FF00F0000FA03F36FEA48
:10104800030319407B6802F1080243F822107B88E9
:101058004FEAD3039BB21A467B6802F1080253F8A1
:101068002220FB681343BB607B884FEAD3039BB203
:101078001A467B6802F10802B96843F8221007F1A2
:101088001407BD4680BC704780B483B000AF786059
:101098004FF46D43CEF200037A6842F0BF6242F427
:1010A8000032DA6007F10C07BD4680BC704700BF0C
:1010B80080B487B000AF78604FF000037B614FF0D9
:1010C80000033B614FF00F03FB607B68DB78002B6C
:1010D80047D04FF46D43CEF20003DB686FEA030399
:1010E80003F4E0634FEA13237B617B69C3F10403D4
:1010F8003B617B69FA6822FA03F3FB607B685B78E3
:101108001A463B6902FA03F37B617B689B781A46AF
:10111800FB6813407A6913437B617B694FEA0313C9
:101128007B614FF46143CEF200037A68127811466E
:101138007A69D2B25B1883F800234FF46143CEF288
:1011480000037A6812784FEA5212D2B279680978A5
:1011580001F01F014FF0010000FA01F143F82210DD
:1011680014E04FF46143CEF200037A6812784FEA34
:101178005212D2B27968097801F01F014FF00100CC
:1011880000FA01F102F1200243F8221007F11C07CE
:10119800BD4680BC704700BF80B483B000AF7860A4
:1011A80039604FF46D43CEF200033A6822F0604292
:1011B80022F07F0279680A439A6007F10C07BD465E
:1011C80080BC704780B483B000AF02460B46FA710A
:1011D800BB71BB79002B0CD04FF46D43CEF20003EA
:1011E8004FF46D42CEF200021169FA790A431A618E
:1011F8000DE04FF46D43CEF200034FF46D42CEF292
:1012080000021169FA796FEA02020A401A6107F1CD
:101218000C07BD4680BC704780B483B000AF7860CF
:101228007B68042B0CD14EF21003CEF200034EF271
:101238001002CEF20002126842F004021A600BE0BB
:101248004EF21003CEF200034EF21002CEF200026C
:10125800126822F004021A6007F10C07BD4680BC30
:10126800704700BF80B400AF4FF48053C4F202034C
:101278004FF48052C4F20202126842F001021A606E
:101288004FF48052C4F202024FF48053C4F20203B6
:1012980059684FF44043CFF6FF030B4053604FF4B7
:1012A8008053C4F202034FF48052C4F2020212685F
:1012B80022F0847222F480321A604FF48053C4F210
:1012C80002034FF48052C4F20202126822F4802210
:1012D8001A604FF48053C4F202034FF48052C4F2F0
:1012E8000202526822F4FE025A604FF48053C4F29C
:1012F80002034FF48052C4F20202D26A22F47F52EF
:1013080022F03F02DA624FF48052C4F202024FF434
:101318008053C4F20203196B4FF6CC43C0F6007336
:101328000B4013634FF48053C4F202034FF00002E2
:101338009A60BD4680BC704780B483B000AF034656
:10134800FB7141F20203C4F202034FF000021A706B
:1013580041F20203C4F20203FA791A7007F10C078A
:10136800BD4680BC704700BF80B582B000AF4FF06B
:1013780000033B604FF00003FB714FF00003BB71AB
:101388004FF0110000F000FF0346BB713B6803F10A
:1013980001033B603B68B3F5A06F02D0BB79002B1B
:1013A800EED04FF0110000F0EFFE0346002B03D003
:1013B8004FF00103FB7102E04FF00003FB71FB7972
:1013C800184607F10807BD4680BD00BF80B485B048
:1013D80000AF0346FB714FF00003FB604FF48053EE
:1013E800C4F202031B68FB60FB6823F0F803FB6090
:1013F800FB794FEAC303FA681343FB604FF4805349
:10140800C4F20203FA681A6007F11407BD4680BCEB
:10141800704700BF80B483B000AF0346FB714FF044
:101428000003C4F24223FA791A6007F10C07BD469B
:1014380080BC704780B483B000AF78604FF48053AD
:10144800C4F202034FF48052C4F20202126A22F07C
:1014580001021A624FF48053C4F202034FF480521F
:10146800C4F20202126A22F004021A624FF4805394
:10147800C4F202034FF48052C4F20202116A7A687D
:101488000A431A6207F10C07BD4680BC704700BFCB
:1014980080B483B000AF78604FF48053C4F2020385
:1014A8004FF48052C4F20202126A22F018021A6241
:1014B8004FF48053C4F202034FF48052C4F2020284
:1014C800116A7A680A431A6207F10C07BD4680BCA4
:1014D800704700BF80B483B000AF0346FB714FF480
:1014E8009063C4F24223FA791A6007F10C07BD46EB
:1014F80080BC704780B483B000AF786039604FF427
:101508008053C4F202034FF48052C4F202025268BC
:1015180022F474125A604FF48053C4F202034FF459
:101528008052C4F20202516878683A6802430A435A
:101538005A6007F10C07BD4680BC704780B483B081
:1015480000AF0346FB714FF06003C4F24223FA79FF
:101558001A6007F10C07BD4680BC704780B485B09F
:1015680000AF78604FF00003FB604FF48053C4F283
:101578000203DB6AFB60FB6823F00F03FB60FA6879
:101588007B681343FB604FF48053C4F20203FA688C
:10159800DA6207F11407BD4680BC704780B483B097
:1015A80000AF0346FB714FF04C03C4F24223FA79B3
:1015B8001A6007F10C07BD4680BC704780B483B041
:1015C80000AF0346FB7141F20703C4F20203FA7944
:1015D8001A7007F10C07BD4680BC704780B485B00F
:1015E80000AF78604FF00003FB604FF48053C4F203
:1015F80002035B68FB60FB6823F00303FB60FA6887
:101608007B681343FB604FF48053C4F20203FA680B
:101618005A6007F11407BD4680BC704780B400AF1C
:101628004FF48053C4F202035B68DBB203F00C038F
:10163800DBB21846BD4680BC704700BF80B485B099
:1016480000AF78604FF00003FB604FF48053C4F2A2
:1016580002035B68FB60FB6823F0F003FB60FA6839
:101668007B681343FB604FF48053C4F20203FA68AB
:101678005A6007F11407BD4680BC704780B485B036
:1016880000AF78604FF00003FB604FF48053C4F262
:1016980002035B68FB60FB6823F4E063FB60FA68A5
:1016A8007B681343FB604FF48053C4F20203FA686B
:1016B8005A6007F11407BD4680BC704780B485B0F6
:1016C80000AF78604FF00003FB604FF48053C4F222
:1016D80002035B68FB60FB6823F46053FB607B6874
:1016E8004FEAC303FA681343FB604FF48053C4F214
:1016F8000203FA685A6007F11407BD4680BC7047B8
:1017080080B48BB000AF78604FF000033B624FF0BD
:101718000003FB614FF00003BB614FF000037B61E6
:101728004FF000033B614FF000037B624FF0000372
:10173800FB604FF00003BB604FF48053C4F2020318
:101748005B6803F00C033B623B6A042B0AD0082B4E
:101758000FD0002B48D17A684FF49053C0F27A0327
:10176800136048E07A684FF49053C0F27A0313602C
:1017780041E04FF48053C4F202035B6803F4701332
:10178800FB614FF48053C4F202035B6803F48033B7
:10179800BB61FB694FEA934303F10203FB61BB6939
:1017A800002B08D1FA694FF41063C0F23D0303FB24
:1017B80002F37B6214E04FF48053C4F20203DB6A45
:1017C80003F00F0303F101037B614FF49053C0F260
:1017D8007A037A69B3FBF2F3FA6902FB03F37B62DB
:1017E8007B687A6A1A6006E07A684FF49053C0F210
:1017F8007A03136000BF4FF48053C4F202035B689E
:1018080003F0F0033B623B6A4FEA13133B6240F27A
:101818000003C2F200033A6A9B181B78DBB2BB6074
:101828007B681A68BB6822FA03F27B685A604FF437
:101838008053C4F202035B6803F4E0633B623B6AD3
:101848004FEA13233B6240F20003C2F200033A6AF4
:101858009B181B78DBB23B617B685A683B6922FAAC
:1018680003F27B689A604FF48053C4F202035B680A
:1018780003F460533B623B6A4FEAD3233B6240F276
:101888000003C2F200033A6A9B181B78DBB2FB60C4
:101898007B685A68FB6822FA03F27B68DA604FF4C7
:1018A8008053C4F20203DB6A03F4F8733B623B6AB9
:1018B8004FEA13133B6240F21003C2F200033A6A84
:1018C80033F812309BB23B613B6903F01003002BE5
:1018D80006D07A6A3B69B2FBF3F27B681A6103E0CF
:1018E8007B681A687B681A614FF48053C4F202035C
:1018F800DB6A03F478533B623B6A4FEA53233B624B
:1019080040F21003C2F200033A6A33F812309BB275
:101918003B613B6903F01003002B06D07A6A3B69F0
:10192800B2FBF3F27B685A6103E07B681A687B6854
:101938005A614FF48053C4F202031B6B03F0100387
:10194800002B06D17A684FF49053C0F27A03936162
:1019580003E07B681A687B689A614FF48053C4F28D
:1019680002031B6B03F02003002B06D17A684FF4A7
:101978009053C0F27A03D36103E07B681A687B68EE
:10198800DA614FF48053C4F202031B6B03F48073D3
:10199800002B0ED07B681A687B6A9A4209D1FA68D4
:1019A800BB689A4205D17B6A4FEA43027B681A6298
:1019B80003E07B68DA687B681A624FF48053C4F2EC
:1019C80002031B6B03F40073002B0ED07B681A68AC
:1019D8007B6A9A4209D1FA68BB689A4205D17B6A48
:1019E8004FEA43027B685A6203E07B68DA687B68E7
:1019F8005A624FF48053C4F202031B6B03F00303D3
:101A0800002B04D17B68DA687B689A622AE04FF47D
:101A18008053C4F202031B6B03F00303012B04D1B0
:101A28007B681A687B689A621CE04FF48053C4F2A2
:101A380002031B6B03F00303022B04D17B684FF4F2
:101A480000429A620EE04FF48053C4F202031B6B0B
:101A580003F00303032B05D17A684FF49053C0F2C7
:101A68007A0393624FF48053C4F202031B6B03F4AE
:101A78004033002B04D17B689A687B68DA622DE0DA
:101A88004FF48053C4F202031B6B03F44033B3F5E5
:101A9800803F04D17B681A687B68DA621EE04FF4E5
:101AA8008053C4F202031B6B03F44033B3F5003FC9
:101AB80004D17B684FF40042DA620FE04FF48053A0
:101AC800C4F202031B6B03F44033B3F5403F05D166
:101AD8007A684FF49053C0F27A03D3624FF480537C
:101AE800C4F202031B6B03F44023002B04D17B6870
:101AF8009A687B681A632DE04FF48053C4F202039E
:101B08001B6B03F44023B3F5802F04D17B681A685C
:101B18007B681A631EE04FF48053C4F202031B6B08
:101B280003F44023B3F5002F04D17B684FF400423F
:101B38001A630FE04FF48053C4F202031B6B03F4E3
:101B48004023B3F5402F05D17A684FF49053C0F283
:101B58007A0313634FF48053C4F202031B6B03F43C
:101B68004013002B04D17B689A687B685A632DE088
:101B78004FF48053C4F202031B6B03F44013B3F514
:101B8800801F04D17B681A687B685A631EE04FF493
:101B98008053C4F202031B6B03F44013B3F5001F18
:101BA80004D17B684FF400425A630FE04FF480532E
:101BB800C4F202031B6B03F44013B3F5401F05D1B5
:101BC8007A684FF49053C0F27A0353634FF480530A
:101BD800C4F202031B6B03F44003002B04D17B689F
:101BE8009A687B689A632DE04FF48053C4F202032D
:101BF8001B6B03F44003B3F5800F04D17B681A68AC
:101C08007B689A631EE04FF48053C4F202031B6B97
:101C180003F44003B3F5000F04D17B684FF400428E
:101C28009A630FE04FF48053C4F202031B6B03F472
:101C38004003B3F5400F05D17A684FF49053C0F2D2
:101C48007A03936307F12C07BD4680BC704700BF39
:101C580080B485B000AF78604FF00003FB607B680C
:101C68004FEA1373FB60FB68002B0CD04FF48053D2
:101C7800C4F202034FF48052C4F20202D26A22F480
:101C88007852DA620BE04FF48053C4F202034FF447
:101C98008052C4F20202D26A22F4F872DA624FF475
:101CA8008053C4F202034FF48052C4F20202D16A94
:101CB8007A680A43DA6207F11407BD4680BC7047A8
:101CC80080B485B000AF78604FF00003FB607B689C
:101CD8004FEA1373FB60FB68002B0CD04FF4805362
:101CE800C4F202034FF48052C4F20202126B22F0D3
:101CF80020021A630BE04FF48053C4F202034FF43E
:101D08008052C4F20202126B22F010021A634FF4DE
:101D18008053C4F202034FF48052C4F20202116BE2
:101D28007A680A431A6307F11407BD4680BC7047F6
:101D380080B485B000AF78604FF00003FB607B682B
:101D48004FEA1373FB60FB68002B0CD04FF48053F1
:101D5800C4F202034FF48052C4F20202126B22F45E
:101D680000721A630BE04FF48053C4F202034FF47D
:101D78008052C4F20202126B22F480721A634FF48A
:101D88008053C4F202034FF48052C4F20202116B72
:101D98007A680A431A6307F11407BD4680BC704786
:101DA80080B485B000AF78604FF00003FB607B68BB
:101DB8004FEA1373FB60FB6803F1FF33042B4ED823
:101DC80001A252F823F000BFE51D0008FF1D00081E
:101DD800191E0008331E00084D1E00084FF48053DA
:101DE800C4F202034FF48052C4F20202126B22F0D2
:101DF80003021A6334E04FF48053C4F202034FF431
:101E08008052C4F20202126B22F440321A6327E0B5
:101E18004FF48053C4F202034FF48052C4F202021A
:101E2800126B22F440221A631AE04FF48053C4F272
:101E380002034FF48052C4F20202126B22F44012E1
:101E48001A630DE04FF48053C4F202034FF480523A
:101E5800C4F20202126B22F440021A6300E000BFCF
:101E68004FF48053C4F202034FF48052C4F20202CA
:101E7800116B7A680A431A6307F11407BD4680BCE0
:101E8800704700BF80B483B000AF78604FF0D803CC
:101E9800C4F242237A681A6007F10C07BD4680BC79
:101EA800704700BF80B483B000AF78604FF48053B0
:101EB800C4F202034FF48052C4F20202116A7A6833
:101EC8000A431A6207F10C07BD4680BC704700BF81
:101ED80080B483B000AF78604FF0DC03C4F24223D3
:101EE8007A681A6007F10C07BD4680BC704700BFCE
:101EF80080B483B000AF0346FB7140F23C43C4F2A8
:101F08004223FA791A6007F10C07BD4680BC704776
:101F180080B483B000AF0346FB714FF48863C4F20A
:101F28004223FA791A6007F10C07BD4680BC704756
:101F380080B483B000AF78600B46FB70FB78002B51
:101F48000CD04FF48053C4F202034FF48052C4F211
:101F5800020251697A680A435A610DE04FF48053CE
:101F6800C4F202034FF48052C4F2020251697A6843
:101F78006FEA02020A405A6107F10C07BD4680BCAD
:101F8800704700BF80B483B000AF78600B46FB7029
:101F9800FB78002B0CD04FF48053C4F202034FF4AB
:101FA8008052C4F2020291697A680A439A610DE08C
:101FB8004FF48053C4F202034FF48052C4F2020279
:101FC80091697A686FEA02020A409A6107F10C0780
:101FD800BD4680BC704700BF80B483B000AF786056
:101FE8000B46FB70FB78002B0CD04FF48053C4F2E7
:101FF80002034FF48052C4F20202D1697A680A439C
:10200800DA610DE04FF48053C4F202034FF48052BA
:10201800C4F20202D1697A686FEA02020A40DA6100
:1020280007F10C07BD4680BC704700BF80B483B081
:1020380000AF78600B46FB70FB78002B0CD04FF498
:102048008053C4F202034FF48052C4F20202916A30
:102058007A680A439A620DE04FF48053C4F202038F
:102068004FF48052C4F20202916A7A686FEA02025F
:102078000A409A6207F10C07BD4680BC704700BF52
:1020880080B483B000AF78600B46FB70FB78002B00
:102098000CD04FF48053C4F202034FF48052C4F2C0
:1020A8000202D1687A680A43DA600DE04FF480537F
:1020B800C4F202034FF48052C4F20202D1687A6873
:1020C8006FEA02020A40DA6007F10C07BD4680BCDD
:1020D800704700BF80B483B000AF78600B46FB70D8
:1020E800FB78002B0CD04FF48053C4F202034FF45A
:1020F8008052C4F2020211697A680A431A610DE03B
:102108004FF48053C4F202034FF48052C4F2020227
:1021180011697A686FEA02020A401A6107F10C072E
:10212800BD4680BC704700BF80B483B000AF024694
:102138000B46FA71BB71BB79002B0ED041F2090333
:10214800C4F2020341F20902C4F202021278D1B2C7
:10215800FA790A43D2B21A7010E041F20903C4F2C4
:10216800020341F20902C4F202021278D1B2FA79EA
:102178006FEA0202D2B20A40D2B21A7007F10C0713
:10218800BD4680BC704700BF80B487B000AF03462F
:10219800FB714FF00003FB604FF000037B614FF0D1
:1021A8000003FB74FB794FEA5313DBB2FB60FB6857
:1021B800002B06D14FF48053C4F202031B687B61E5
:1021C80019E0FB68012B06D14FF48053C4F20203D7
:1021D8001B6A7B610FE0FB68042B06D14FF4805328
:1021E800C4F202035B687B6105E04FF48053C4F2DC
:1021F80002035B6A7B61FB7903F01F03FB60FB68EA
:102208007A6922FA03F303F00103002B03D04FF09D
:102218000103FB7402E04FF00003FB74FB7C1846DB
:1022280007F11C07BD4680BC704700BF80B400AFF3
:102238004FF48053C4F202034FF48052C4F20202F6
:10224800526A42F080725A62BD4680BC704700BF35
:1022580080B485B000AF0346FB714FF00003FB73F9
:102268004FF48053C4F202039A68FB791340002BA1
:1022780003D04FF00103FB7302E04FF00003FB7340
:10228800FB7B184607F11407BD4680BC704700BFAA
:1022980080B483B000AF0346FB7141F20A03C4F275
:1022A8000203FA791A7007F10C07BD4680BC704723
:1022B80080B582B000AF78607A684FF43053C4F2CA
:1022C80001039A420CD14FF400604FF00101FFF76F
:1022D800D7FE4FF400604FF00001FFF7D1FEAFE0EA
:1022E8007B68B3F1804F0CD14FF001004FF0010132
:1022F800FFF7F0FE4FF001004FF00001FFF7EAFE94
:102308009EE07A684FF48063C4F200039A420CD1CD
:102318004FF002004FF00101FFF7DCFE4FF0020022
:102328004FF00001FFF7D6FE8AE07A684FF40063A9
:10233800C4F200039A420CD14FF004004FF001019F
:10234800FFF7C8FE4FF004004FF00001FFF7C2FE90
:1023580076E07A684FF48053C4F200039A420CD1B5
:102368004FF010004FF00101FFF7B4FE4FF01000DE
:102378004FF00001FFF7AEFE62E07A684FF4A05319
:10238800C4F200039A420CD14FF020004FF0010133
:10239800FFF7A0FE4FF020004FF00001FFF79AFE74
:1023A8004EE07A684FF45053C4F201039A420CD1BC
:1023B8004FF400504FF00101FFF762FE4FF4005058
:1023C8004FF00001FFF75CFE3AE07A684FF4804373
:1023D800C4F201039A420CD14FF480304FF001014E
:1023E800FFF74EFE4FF480304FF00001FFF748FE34
:1023F80026E07A684FF48843C4F201039A420CD16C
:102408004FF400304FF00101FFF73AFE4FF400306F
:102418004FF00001FFF734FE12E07A684FF4904362
:10242800C4F201039A420BD14FF480204FF001010E
:10243800FFF726FE4FF480204FF00001FFF720FE43
:1024480007F10807BD4680BD80B485B000AF78604D
:1024580039604FF00003FB817B681B88FB817A6839
:102468004FF43053C4F201039A4218D07A684FF4FB
:102478005053C4F201039A4211D07B68B3F1804FE4
:102488000DD07A684FF48063C4F200039A4206D0F4
:102498007A684FF40063C4F200039A4208D1FB89BA
:1024A80023F07003FB813B685A88FB891343FB8147
:1024B8007A684FF48053C4F200039A420FD07A68C6
:1024C8004FF4A053C4F200039A4208D0FB8923F4C6
:1024D8004073FB813B681A89FB891343FB817B6846
:1024E800FA891A803B685A687B68DA623B681A88FE
:1024F8007B681A857A684FF43053C4F201039A4214
:102508001BD07A684FF45053C4F201039A4214D096
:102518007A684FF48043C4F201039A420DD07A6876
:102528004FF48843C4F201039A4206D07A684FF404
:102538009043C4F201039A4204D13B689B7A1A463D
:102548007B681A867B684FF001025A6107F114070D
:10255800BD4680BC704700BF80B483B000AF7860D0
:102568007B684FF0FF325A607B684FF000021A8098
:102578007B684FF000021A817B684FF000025A8096
:102588007B684FF000029A7207F10C07BD4680BCC9
:10259800704700BF80B483B000AF786013460A4626
:1025A8007A803B807B687A881A853A887B685A618A
:1025B80007F10C07BD4680BC704700BF80B485B0EA
:1025C80000AF78600B467B804FF00003FB817B688F
:1025D8001B88FB81FB8923F07003FB81FA897B88C8
:1025E8001343FB817B68FA891A8007F11407BD46FB
:1025F80080BC704780B483B000AF786039607B6876
:102608003A685A6207F10C07BD4680BC704700BFA4
:1026180080B483B000AF786039607B683A68DA626A
:1026280007F10C07BD4680BC704700BF80B483B07B
:1026380000AF78607B685B6A184607F10C07BD46F7
:1026480080BC704780B483B000AF78607B681B8D16
:102658009BB2184607F10C07BD4680BC704700BF07
:1026680080B483B000AF78600B46FB70FB78002B1A
:1026780008D07B681B889BB243F002039AB27B6840
:102688001A8007E07B681B889BB223F002039AB28A
:102698007B681A8007F10C07BD4680BC704700BFF5
:1026A80080B483B000AF78600B467B807B88002BBA
:1026B80008D07B681B889BB243F004039AB27B68FE
:1026C8001A8007E07B681B889BB223F004039AB248
:1026D8007B681A8007F10C07BD4680BC704700BFB5
:1026E80080B483B000AF78600B46FB70FB78002B9A
:1026F80008D07B681B889BB243F400639AB27B685E
:102708001A8007E07B681B889BB223F400639AB2A7
:102718007B681A8007F10C07BD4680BC704700BF74
:1027280080B483B000AF78600B46FB70FB78002B59
:1027380008D07B681B889BB243F080039AB27B6801
:102748001A8007E07B681B889BB223F080039AB24B
:102758007B681A8007F10C07BD4680BC704700BF34
:1027680080B483B000AF78600B467B807B681B88A1
:102778009BB223F008039AB27B681A807B681B8897
:102788009AB27B8813439AB27B681A8007F10C07C8
:10279800BD4680BC704700BF80B483B000AF78608E
:1027A8000B467B807B681B889BB223F440739AB2EC
:1027B8007B681A807B681B889AB27B8813439AB21D
:1027C8007B681A8007F10C07BD4680BC704700BFC4
:1027D80080B483B000AF78600B46FB70FB78002BA9
:1027E80008D07B681B889BB243F001039AB27B68D0
:1027F8001A8007E07B681B889BB223F001039AB21A
:102808007B681A8007F10C07BD4680BC704700BF83
:1028180080B487B000AF786039604FF00003FB6088
:102828004FF000037B614FF000033B617B681B6A3C
:1028380023F001027B681A627B681B6A7B617B68F4
:102848005B683B617B689B69FB60FB6823F48033B2
:1028580023F07003FB60FB6823F00303FB603B6815
:102868001B68FA681343FB607B6923F002037B61F2
:102878003B689B897A6913437B613B689B887A69CB
:1028880013437B617A684FF43053C4F201039A42D0
:102898001BD07A684FF45053C4F201039A4214D003
:1028A8007A684FF48043C4F201039A420DD07A68E3
:1028B8004FF48843C4F201039A4206D07A684FF471
:1028C8009043C4F201039A4223D17B6923F00803A1
:1028D8007B613B68DB897A6913437B617B6923F001
:1028E80004037B613B68DB887A6913437B613B693E
:1028F80023F480733B613B6923F400733B613B68BD
:102908001B8A3A6913433B613B685B8A3A69134304
:102918003B617B683A695A607B68FA689A613B68F0
:102928009A687B685A637B687A691A6207F11C07A0
:10293800BD4680BC704700BF80B487B000AF7860E8
:1029480039604FF00003FB604FF000037B614FF0EC
:1029580000033B617B681B6A23F010027B681A62E4
:102968007B681B6A7B617B685B683B617B689B69F2
:10297800FB60FB6823F0807323F4E043FB60FB6893
:1029880023F44073FB603B681B684FEA0323FA6833
:102998001343FB607B6923F020037B613B689B89C1
:1029A8004FEA03137A6913437B613B689B884FEABC
:1029B80003137A6913437B617A684FF43053C4F286
:1029C80001039A4206D07A684FF45053C4F20103C7
:1029D8009A422BD17B6923F080037B613B68DB89BA
:1029E8004FEA03137A6913437B617B6923F0400341
:1029F8007B613B68DB884FEA03137A6913437B6189
:102A08003B6923F480633B613B6923F400633B61CA
:102A18003B681B8A4FEA83033A6913433B613B686F
:102A28005B8A4FEA83033A6913433B617B683A69DF
:102A38005A607B68FA689A613B689A687B689A630F
:102A48007B687A691A6207F11C07BD4680BC70472B
:102A580080B487B000AF786039604FF00003FB6046
:102A68004FF000037B614FF000033B617B681B6AFA
:102A780023F480727B681A627B681B6A7B617B68BF
:102A88005B683B617B68DB69FB60FB6823F0700374
:102A9800FB60FB6823F00303FB603B681B68FA6874
:102AA8001343FB607B6923F400737B613B689B895C
:102AB8004FEA03237A6913437B613B689B884FEA9B
:102AC80003237A6913437B617A684FF43053C4F265
:102AD80001039A4206D07A684FF45053C4F20103B6
:102AE8009A422BD17B6923F400637B613B68DB89C5
:102AF8004FEA03237A6913437B617B6923F480637C
:102B08007B613B68DB884FEA03237A6913437B6167
:102B18003B6923F480533B613B6923F400533B61D9
:102B28003B681B8A4FEA03133A6913433B613B68CE
:102B38005B8A4FEA03133A6913433B617B683A693E
:102B48005A607B68FA68DA613B689A687B68DA637E
:102B58007B687A691A6207F11C07BD4680BC70471A
:102B680080B487B000AF786039604FF000033B61F4
:102B78004FF00003FB604FF000037B617B681B6A2A
:102B880023F480527B681A627B681B6AFB607B684F
:102B98005B687B617B68DB693B613B6923F4E043ED
:102BA8003B613B6923F440733B613B681B684FEA18
:102BB80003233A6913433B61FB6823F40053FB602A
:102BC8003B689B894FEA0333FA681343FB603B6811
:102BD8009B884FEA0333FA681343FB607A684FF423
:102BE8003053C4F201039A4206D07A684FF4505326
:102BF800C4F201039A420AD17B6923F480437B61C2
:102C08003B681B8A4FEA83137A6913437B617B68AD
:102C18007A695A607B683A69DA613B689A687B68C6
:102C28001A647B68FA681A6207F11C07BD4680BC03
:102C3800704700BF80B487B000AF786039604FF04C
:102C480000033B614FF00003FB604FF000037B6122
:102C58007B681B6A23F480327B681A627B681B6A74
:102C6800FB607B685B687B617B685B6D3B613B6994
:102C780023F070033B613B681B683A6913433B616F
:102C8800FB6823F40033FB603B689B894FEA0343EE
:102C9800FA681343FB603B689B884FEA0343FA6872
:102CA8001343FB607A684FF43053C4F201039A422D
:102CB80006D07A684FF45053C4F201039A420AD1FD
:102CC8007B6923F480337B613B681B8A4FEA0343AB
:102CD8007A6913437B617B687A695A607B683A69D1
:102CE8005A653B689A687B689A657B68FA681A62D5
:102CF80007F11C07BD4680BC704700BF80B487B091
:102D080000AF786039604FF000033B614FF000037B
:102D1800FB604FF000037B617B681B6A23F4801221
:102D28007B681A627B681B6AFB607B685B687B61F7
:102D38007B685B6D3B613B6923F4E0433B613B6827
:102D48001B684FEA03233A6913433B61FB6823F48A
:102D58000013FB603B689B894FEA0353FA681343EF
:102D6800FB603B689B884FEA0353FA681343FB6098
:102D78007A684FF43053C4F201039A4206D07A6855
:102D88004FF45053C4F201039A4203D17B6923F4F0
:102D980000337B617B687A695A607B683A695A6557
:102DA8003B689A687B68DA657B68FA681A6207F19B
:102DB8001C07BD4680BC704780B483B000AF786004
:102DC8000B46FB70FB78002B06D07B689B6D43F0AD
:102DD80000527B689A6505E07B689B6D23F0005282
:102DE8007B689A6507F10C07BD4680BC704700BF39
:102DF80080B483B000AF78600B46FB70FB78002B83
:102E080006D07B689B6D43F080427B689A6505E03D
:102E18007B689B6D23F080427B689A6507F10C07FD
:102E2800BD4680BC704700BF80B483B000AF7860F7
:102E38000B46FB70FB78002B06D07B689B6D43F03C
:102E480000427B689A6505E07B689B6D23F0004231
:102E58007B689A6507F10C07BD4680BC704700BFC8
:102E680080B483B000AF78607B684FF000021A60CE
:102E78007B684FF000029A807B684FF00002DA808E
:102E88007B684FF000029A607B684FF000029A81DD
:102E98007B684FF00002DA817B684FF000021A82EB
:102EA8007B684FF000025A8207F10C07BD4680BCD0
:102EB800704700BF80B487B000AFF8600B467A60F7
:102EC8007B814FF000037B614FF000037B82FB683E
:102ED8007B617B6903F118037B617B894FF00102F9
:102EE80002FA03F37B82FB681A6A7B8A6FEA0303A0
:102EF8009BB21A40FB681A627B89002B02D07B893F
:102F0800082B15D17B894FEA53039BB27A69D318F2
:102F18007B617A697B691B6823F4803323F0700333
:102F280013607B697A6911687A680A431A6019E044
:102F38007B89A3F104034FEA53037A69D3187B61B1
:102F48007A697B691B6823F0807323F4E04313607C
:102F58007B697A6911687A6892B24FEA022292B262
:102F68000A431A6007F11C07BD4680BC704700BFC2
:102F780080B483B000AF786039607B683A685A6380
:102F880007F10C07BD4680BC704700BF80B483B012
:102F980000AF786039607B683A689A6307F10C077C
:102FA800BD4680BC704700BF80B483B000AF786076
:102FB80039607B683A68DA6307F10C07BD4680BC64
:102FC800704700BF80B483B000AF786039607B6819
:102FD8003A681A6407F10C07BD4680BC704700BF09
:102FE80080B483B000AF786039607B683A689A65CE
:102FF80007F10C07BD4680BC704700BF80B483B0A2
:1030080000AF786039607B683A68DA6507F10C07C9
:10301800BD4680BC704700BF80B485B000AF786003
:103028000B467B804FF00003FB607B689B69FB606D
:10303800FB6823F4803323F07003FB607B88FA6815
:103048001343FB607B68FA689A6107F11407BD4671
:1030580080BC704780B485B000AF78600B467B8039
:103068004FF00003FB607B689B69FB60FB6823F003
:10307800807323F4E043FB607B884FEA0323FA68FC
:103088001343FB607B68FA689A6107F11407BD4631
:1030980080BC704780B485B000AF78600B467B80F9
:1030A8004FF00003FB607B68DB69FB60FB6823F083
:1030B8007003FB607B88FA681343FB607B68FA68DF
:1030C800DA6107F11407BD4680BC704780B485B04B
:1030D80000AF78600B467B804FF00003FB607B6895
:1030E800DB69FB60FB6823F4E043FB607B884FEA05
:1030F8000323FA681343FB607B68FA68DA6107F117
:103108001407BD4680BC704780B485B000AF7860B6
:103118000B467B804FF00003FB607B685B6DFB60B8
:10312800FB6823F07003FB607B88FA681343FB603D
:103138007B68FA685A6507F11407BD4680BC70477A
:1031480080B485B000AF78600B467B804FF00003F9
:10315800FB607B685B6DFB60FB6823F4E043FB600E
:103168007B884FEA0323FA681343FB607B68FA689D
:103178005A6507F11407BD4680BC704780B485B016
:1031880000AF78600B467B804FF00003FB607B68E4
:103198009B69FB60FB6823F00803FB607B88FA6887
:1031A8001343FB607B68FA689A6107F11407BD4610
:1031B80080BC704780B485B000AF78600B467B80D8
:1031C8004FF00003FB607B689B69FB60FB6823F49E
:1031D8000063FB607B884FEA0323FA681343FB60B4
:1031E8007B68FA689A6107F11407BD4680BC70478E
:1031F80080B485B000AF78600B467B804FF0000349
:10320800FB607B68DB69FB60FB6823F00803FB60FD
:103218007B88FA681343FB607B68FA68DA6107F118
:103228001407BD4680BC704780B485B000AF786095
:103238000B467B804FF00003FB607B68DB69FB601B
:10324800FB6823F40063FB607B884FEA0323FA687A
:103258001343FB607B68FA68DA6107F11407BD461F
:1032680080BC704780B485B000AF78600B467B8027
:103278004FF00003FB607B685B6DFB60FB6823F02D
:103288000803FB607B88FA681343FB607B68FA6875
:103298005A6507F11407BD4680BC704780B485B0F5
:1032A80000AF78600B467B804FF00003FB607B68C3
:1032B8005B6DFB60FB6823F40063FB607B884FEA6F
:1032C8000323FA681343FB607B68FA685A6507F1C1
:1032D8001407BD4680BC704780B485B000AF7860E5
:1032E8000B467B804FF00003FB607B689B69FB60AB
:1032F800FB6823F00403FB607B88FA681343FB60D8
:103308007B68FA689A6107F11407BD4680BC70476C
:1033180080B485B000AF78600B467B804FF0000327
:10332800FB607B689B69FB60FB6823F48063FB6040
:103338007B884FEA0323FA681343FB607B68FA68CB
:103348009A6107F11407BD4680BC704780B485B008
:1033580000AF78600B467B804FF00003FB607B6812
:10336800DB69FB60FB6823F00403FB607B88FA6879
:103378001343FB607B68FA68DA6107F11407BD46FE
:1033880080BC704780B485B000AF78600B467B8006
:103398004FF00003FB607B68DB69FB60FB6823F48C
:1033A8008063FB607B884FEA0323FA681343FB6062
:1033B8007B68FA68DA6107F11407BD4680BC70477C
:1033C80080B485B000AF78600B467B804FF0000377
:1033D800FB607B689B69FB60FB6823F08003FB60F4
:1033E8007B88FA681343FB607B68FA689A6107F187
:1033F8001407BD4680BC704780B485B000AF7860C4
:103408000B467B804FF00003FB607B689B69FB6089
:10341800FB6823F40043FB607B884FEA0323FA68C8
:103428001343FB607B68FA689A6107F11407BD468D
:1034380080BC704780B485B000AF78600B467B8055
:103448004FF00003FB607B68DB69FB60FB6823F0DF
:103458008003FB607B88FA681343FB607B68FA682B
:10346800DA6107F11407BD4680BC704780B485B0A7
:1034780000AF78600B467B804FF00003FB607B68F1
:10348800DB69FB60FB6823F40043FB607B884FEA41
:103498000323FA681343FB607B68FA68DA6107F173
:1034A8001407BD4680BC704780B485B000AF786013
:1034B8000B467B804FF00003FB607B685B6DFB6015
:1034C800FB6823F08003FB607B88FA681343FB608A
:1034D8007B68FA685A6507F11407BD4680BC7047D7
:1034E80080B485B000AF78600B467B804FF0000356
:1034F800FB607B685B6DFB60FB6823F40043FB604B
:103508007B884FEA0323FA681343FB607B68FA68F9
:103518005A6507F11407BD4680BC704780B483B074
:1035280000AF78600B467B807B689A684FF6F7732C
:1035380013407A6893607B689A687B881A437B6833
:103548009A6007F10C07BD4680BC704780B485B00F
:1035580000AF78600B467B804FF00003FB607B6810
:103568001B6AFB60FB6823F00203FB607B88FA6838
:103578001343FB607B68FA681A6207F11407BD46BB
:1035880080BC704780B485B000AF78600B467B8004
:103598004FF00003FB607B681B6AFB60FB6823F04D
:1035A8000803FB607B88FA681343FB607B68FA6852
:1035B8001A6207F11407BD4680BC704780B485B015
:1035C80000AF78600B467B804FF00003FB607B68A0
:1035D8001B6AFB60FB6823F02003FB607B884FEAD3
:1035E8000313FA681343FB607B68FA681A6207F1F1
:1035F8001407BD4680BC704780B485B000AF7860C2
:103608000B467B804FF00003FB607B681B6AFB6006
:10361800FB6823F08003FB607B884FEA0313FA689A
:103628001343FB607B68FA681A6207F11407BD460A
:1036380080BC704780B485B000AF78600B467B8053
:103648004FF00003FB607B681B6AFB60FB6823F498
:103658000073FB607B884FEA0323FA681343FB601F
:103668007B68FA681A6207F11407BD4680BC704788
:1036780080B485B000AF78600B467B804FF00003C4
:10368800FB607B681B6AFB60FB6823F40063FB60DC
:103698007B884FEA0323FA681343FB607B68FA6868
:1036A8001A6207F11407BD4680BC704780B485B024
:1036B80000AF78600B467B804FF00003FB607B68AF
:1036C8001B6AFB60FB6823F40053FB607B884FEAAE
:1036D8000333FA681343FB607B68FA681A6207F1E0
:1036E8001407BD4680BC704780B485B000AF7860D1
:1036F8000B467B804FF00003FB607B681B6AFB6016
:10370800FB6823F40033FB607B884FEA0343FA68C5
:103718001343FB607B68FA681A6207F11407BD4619
:1037280080BC704780B485B000AF78600B467B8062
:103738004FF00003FB607B681B6AFB60FB6823F4A7
:103748000013FB607B884FEA0353FA681343FB605E
:103758007B68FA681A6207F11407BD4680BC704797
:1037680080B485B000AF786013460A467A803B8003
:103778004FF00003FB607B884FF0010202FA03F36D
:10378800FB607B681A6AFB686FEA03031A407B6870
:103798001A627B681A6A39887B8801FA03F31A432C
:1037A8007B681A6207F11407BD4680BC704700BFEA
:1037B80080B485B000AF786013460A467A803B80B3
:1037C8004FF00003FB607B884FF0040202FA03F31A
:1037D800FB607B681A6AFB686FEA03031A407B6820
:1037E8001A627B681A6A39887B8801FA03F31A43DC
:1037F8007B681A6207F11407BD4680BC704700BF9A
:1038080080B582B000AF786039603B681B88002BB8
:103818000FD13B6859883B689A883B681B89786850
:1038280000F002FD3B68DB887868194600F0ECF888
:1038380036E03B681B88042B0FD13B6859883B68EE
:103848009A883B681B89786800F02AFD3B68DB880A
:103858007868194600F0F0F822E03B681B88082BCE
:103868000FD13B6859883B689A883B681B89786800
:1038780000F060FD3B68DB887868194600F0F6F8D0
:103888000EE03B6859883B689A883B681B897868D2
:1038980000F096FD3B68DB887868194600F0FEF872
:1038A80007F10807BD4680BD80B483B000AF7860DB
:1038B8007B684FF000021A807B684FF000025A8044
:1038C8007B684FF001029A807B684FF00002DA8033
:1038D8007B684FF000021A8107F10C07BD4680BCD7
:1038E800704700BF80B584B000AF786039604FF092
:1038F8000003FB814FF00103BB813B685B88002B11
:1039080003D14FF00203FB8102E04FF00003FB817B
:103918003B689B88012B03D14FF00203BB8102E077
:103928004FF00103BB813B681B88002B1CD13B680F
:1039380059883B689A883B681B89786800F074FC52
:103948003B68DB887868194600F05EF83B681B899D
:10395800F989BA89786800F0A3FC3B68DB88786845
:10396800194600F069F81BE03B6859883B689A885B
:103978003B681B89786800F093FC3B68DB887868B3
:10398800194600F059F83B681B89F989BA897868A3
:1039980000F04AFC3B68DB887868194600F034F888
:1039A80007F11007BD4680BD80B483B000AF7860D2
:1039B8007B685B6B184607F10C07BD4680BC7047F7
:1039C80080B483B000AF78607B689B6B184607F1C2
:1039D8000C07BD4680BC704780B483B000AF7860E8
:1039E8007B68DB6B184607F10C07BD4680BC704747
:1039F80080B483B000AF78607B681B6C184607F111
:103A08000C07BD4680BC704780B483B000AF7860B7
:103A18000B467B807B689B6923F00C027B689A616C
:103A28007B689A697B881A437B689A6107F10C075F
:103A3800BD4680BC704700BF80B483B000AF7860DB
:103A48000B467B807B689B6923F440627B689A61A4
:103A58007B689A697B884FEA03231A437B689A61DB
:103A680007F10C07BD4680BC704700BF80B483B027
:103A780000AF78600B467B807B68DA694FF6F3739A
:103A880013407A68D3617B68DA697B881A437B685C
:103A9800DA6107F10C07BD4680BC704780B483B07B
:103AA80000AF78600B467B807B68DA694FF2FF33A2
:103AB80013407A68D3617B68DA697B884FEA03230D
:103AC8009BB21A437B68DA6107F10C07BD4680BCDC
:103AD800704700BF80B483B000AF786039603B683E
:103AE8001A883B685B8813439AB23B689B881343E8
:103AF8009AB23B68DB8813439AB23B681B8913432D
:103B08009AB23B685B8913439AB23B689B8913431B
:103B18009BB21A467B685A6407F10C07BD4680BC05
:103B2800704700BF80B485B000AFF860B960134635
:103B3800FB71FB685B6C23F47222FB685A64FB68B8
:103B48005A6CFB794FEA0341BB680B431A43FB6885
:103B58005A6407F11407BD4680BC704780B485B02D
:103B680000AFF860B9601346FB71FB685B6C23F02B
:103B78003C72FB685A64FB685A6CFB794FEA035144
:103B8800BB680B431A43FB685A6407F11407BD4628
:103B980080BC704780B483B000AF78600B46FB7080
:103BA800FB78002B06D07B685B6C43F480527B6803
:103BB8005A6405E07B685B6C23F480527B685A6426
:103BC80007F10C07BD4680BC704700BF80B483B0C6
:103BD80000AF78600B46FB70FB78002B06D07B6843
:103BE8005B6C43F080727B685A6405E07B685B6CB1
:103BF80023F080727B685A6407F10C07BD4680BCCD
:103C0800704700BF80B483B000AF78607B684FF026
:103C180000021A807B684FF000025A807B684FF0E0
:103C280000029A807B684FF00002DA807B684FF0D0
:103C380000021A817B684FF000025A817B684FF0BE
:103C480000029A8107F10C07BD4680BC704700BF8F
:103C580080B483B000AF78600B46FB70FB78002B14
:103C680006D07B685B6C43F400427B685A6407E0CB
:103C78007B685B6C4FEA43434FEA53437A6853646B
:103C880007F10C07BD4680BC704700BF80B483B005
:103C980000AF78600B46FB70FB78002B06D07B6882
:103CA8005B6843F004027B685A6006E07B685A68E8
:103CB8004FF6FB7313407A68536007F10C07BD4653
:103CC80080BC704780B483B000AF78600B46FB704F
:103CD800FB78002B06D07B685B6843F001027B68A9
:103CE8005A6006E07B685A684FF6FE7313407A689C
:103CF800536007F10C07BD4680BC704780B483B0A1
:103D080000AF786013460A467A807B707B78002B78
:103D180006D07B68DA687B881A437B68DA6008E03B
:103D28007B68DA687B886FEA03039BB21A407B687A
:103D3800DA6007F10C07BD4680BC704780B483B0D9
:103D480000AF78600B467B807A887B685A6107F100
:103D58000C07BD4680BC704780B485B000AF786062
:103D680039604FF00003FB737B681A693B681340A6
:103D7800002B03D04FF00103FB7302E04FF0000368
:103D8800FB73FB7B184607F11407BD4680BC7047E0
:103D980080B483B000AF78600B467B807B886FEA85
:103DA80003039BB21A467B681A6107F10C07BD46EC
:103DB80080BC704780B485B000AF78600B467B80CC
:103DC8004FF00003FB734FF00003BB814FF000037B
:103DD8007B817B681B699AB27B881340BB817B68B7
:103DE800DB689AB27B8813407B81BB89002B06D0A5
:103DF8007B89002B03D04FF00103FB7302E04FF0E7
:103E08000003FB73FB7B184607F11407BD4680BC13
:103E1800704700BF80B483B000AF78600B467B80EA
:103E28007B886FEA03039BB21A467B681A6107F125
:103E38000C07BD4680BC704780B483B000AF786083
:103E480013460A467A803B807A883B8813439AB2A5
:103E58007B68A3F8482007F10C07BD4680BC704773
:103E680080B483B000AF786013460A467A807B70CE
:103E78007B78002B06D07B68DA687B881A437B68DE
:103E8800DA6008E07B68DA687B886FEA03039BB234
:103E98001A407B68DA6007F10C07BD4680BC7047A2
:103EA80080B483B000AF78600B46FB70FB78002BC2
:103EB80006D07B685B6843F008027B685A6006E0BE
:103EC8007B685A684FF6F77313407A68536007F1B6
:103ED8000C07BD4680BC704780B483B000AF7860E3
:103EE8007B689A684FF6F87313407A68936007F115
:103EF8000C07BD4680BC704780B582B000AF7860C3
:103F08000B467B807B887868194600F077F87B68D9
:103F18009B6843F007027B689A6007F10807BD4673
:103F280080BD00BF80B584B000AFF86079813A8168
:103F3800FB807B89602B08D13A89FB88F868114699
:103F48004FF0010200F0ACF907E03A89FB88F86805
:103F580011464FF0010200F067F97B89F8681946AD
:103F680000F04CF8FB689B6843F00702FB689A6016
:103F780007F11007BD4680BD80B586B000AFF86078
:103F880079813A81FB804FF00003FB8279893A8975
:103F9800FB88F86800F0ACF8FB689B68FB82FB8A3A
:103FA80023F00703FB82FB8A43F00703FB82FB8AAB
:103FB80023F07003FB82FB8A43F07003FB82FA8ACA
:103FC800FB689A6007F11807BD4680BD80B584B0CC
:103FD80000AFF86079813A81FB8079893A89FB885A
:103FE800F86800F085F8FB689B6843F48042FB683A
:103FF8009A6007F11007BD4680BD00BF80B485B048
:1040080000AF78600B467B804FF00003FB817B6834
:104018009B68FB81FB8923F07003FB81FA897B880D
:104028001343FB81FA897B689A6007F11407BD4640
:1040380080BC704780B483B000AF78600B467B804B
:104048007B685A684FF68F7313407A6853607B68B1
:104058005A687B881A437B685A6007F10C07BD468B
:1040680080BC704780B483B000AF786039607B68EB
:104078005B6823F470027B685A607B685A683B6807
:104088001A437B685A6007F10C07BD4680BC70472D
:1040980080B483B000AF786039607B689B6823F494
:1040A800803323F007037A6893607B689A683B68DB
:1040B8001A437B689A6007F10C07BD4680BC7047BD
:1040C80080B483B000AF78600B467B807B689A68C9
:1040D8004FF67F7313407A6893607B689A687B8891
:1040E8001A437B689A6007F10C07BD4680BC70478D
:1040F80080B487B000AFF86079813A81FB804FF0D7
:104108000003FB82FB689B68FB82FB8ADBB2FB82B5
:10411800FB884FEA03239AB23B8913439AB27B89FF
:1041280013439AB2FB8A1343FB82FA8AFB689A60AC
:1041380007F11C07BD4680BC704700BF80B487B03C
:1041480000AFF86079813A81FB804FF00003FB8271
:104158004FF00003BB824FF000037B82FB689B6833
:10416800FB82FB689B69BB82FB681B6A7B82FB8ABC
:1041780023F00703FB82FA8A7B891343FB82BB8AFD
:1041880023F4407323F00303BB82BB8A43F4807398
:1041980043F00103BB827B8A23F022037B82FB88E6
:1041A8004FEA03139AB23B8913439AB27B8A1343AB
:1041B8007B82FA8AFB689A60BA8AFB689A617A8A73
:1041C800FB681A6207F11C07BD4680BC704700BF38
:1041D80080B483B000AF78600B46FB70FB78002B8F
:1041E80006D07B685B6843F080027B685A6006E013
:1041F8007B685A684FF67F7313407A68536007F1FB
:104208000C07BD4680BC704780B483B000AF7860AF
:104218000B467B807B687A88A3F8502007F10C074F
:10422800BD4680BC704700BF80B487B000AFF8605F
:1042380079813A81FB804FF000037B614FF00003E6
:104248003B61FB681B6A23F00102FB681A62FB688A
:104258009B697B61FB681B6A3B617B6923F0F30305
:104268007B613A89FB884FEA031313437A69134346
:104278007B613B6923F00A033B617B8943F00103BF
:104288009BB23A6913433B61FB687A699A61FB68A0
:104298003A691A6207F11C07BD4680BC704700BF27
:1042A80080B489B000AFF86079813A81FB804FF023
:1042B8000003FB614FF00003BB614FF000037B611B
:1042C800FB681A6A4FF6EF731340FA681362FB68CB
:1042D8009B69FB61FB681B6ABB617B894FEA03131F
:1042E8009BB27B61FB6923F47343FB61FB884FEA54
:1042F8000333FA691343FB613B894FEA0323FA69E5
:104308001343FB61BA694FF65F731340BB617B6966
:104318009BB243F010039BB2BA691343BB61FB68BD
:10432800FA699A61FB68BA691A6207F12407BD46FF
:1043380080BC704780B487B000AFF86079813A815B
:10434800FB804FF00003FB824FF00003BB824FF06D
:1043580000037B82FB681A6A4FF6FF631340FA6812
:104368001362FB68DB69FB82FB681B6ABB827B8983
:104378004FEA03237B82FB8A23F0F303FB82FB884B
:104388004FEA03139AB23B8913439AB2FB8A134349
:10439800FB82BB8A23F42063BB827A8ABB8A1343DD
:1043A8009BB243F48073BB82FA8AFB68DA61BA8AEB
:1043B800FB681A6207F11C07BD4680BC704700BF46
:1043C80080B487B000AFF86079813A81FB804FF004
:1043D8000003FB824FF00003BB824FF000037B8297
:1043E800FB681A6A4EF6FF731340FA681362FB689B
:1043F800DB69FB82FB681B6ABB827B894FEA03335C
:104408007B82FB8A23F440734FEA03534FEA13532A
:10441800FB823B894FEA03239AB2FB8A1343FB8250
:10442800FB884FEA03339AB2FB8A1343FB82BB8AA9
:1044380023F400534FEA43434FEA5343BB827A8A3B
:10444800BB8A13439BB243F48053BB82FA8AFB684E
:10445800DA61BA8AFB681A6207F11C07BD4680BC9C
:10446800704700BF80B582B000AF78607A684FF4BB
:104478006053C4F201039A420CD14FF480404FF0CC
:104488000101FDF7FDFD4FF480404FF00001FDF7FD
:10449800F7FD4EE07A684FF48843C4F200039A426D
:1044A8000CD14FF400304FF00101FDF713FE4FF42B
:1044B80000304FF00001FDF70DFE3AE07A684FF446
:1044C8009043C4F200039A420CD14FF480204FF07D
:1044D8000101FDF7FFFD4FF480204FF00001FDF7CB
:1044E800F9FD26E07A684FF49843C4F200039A4233
:1044F8000CD14FF400204FF00101FDF7EBFD4FF414
:1045080000204FF00001FDF7E5FD12E07A684FF456
:10451800A043C4F200039A420BD14FF480104FF02D
:104528000101FDF7D7FD4FF480104FF00001FDF7B2
:10453800D1FD07F10807BD4680BD00BF80B594B026
:1045480000AF786039604FF00003FB644FF0000360
:10455800BB644FF000037B647B681B6823F0010297
:104568007B681A607B685B687B647B6C23F44053D0
:104578007B643B689B687A6C13437B647B687A6CCA
:104588005A607B681B687B647B6C23F4B05323F010
:104598000C037B643B685A683B68DB681A433B68DA
:1045A8001B6913437A6C13437B647B687A6C1A60CB
:1045B8007B689B687B647B6C23F440737B643B68FB
:1045C8005B697A6C13437B647B687A6C9A6007F149
:1045D80008031846FDF794F87A684FF46053C4F25C
:1045E80001039A4202D13B6BBB641FE07A684FF427
:1045F8008843C4F200039A4202D17B6BBB6415E086
:104608007A684FF49043C4F200039A4202D1BB6B1C
:10461800BB640BE07A684FF49843C4F200039A42F3
:1046280002D1FB6BBB6401E03B6CBB647B681B681D
:1046380003F40043002B13D0BB6C4FEA43023B68E2
:104648001B68B2FBF3F3FB64BB6C4FEA43033A68A5
:104658001268B3FBF2F102FB01F29B1A7B640EE0D5
:104668003B681B68BA6CB2FBF3F3FB643B681A68DF
:10467800BB6CB3FBF2F102FB01F29B1A7B643B6853
:104688001B684FEA53027B6C9A4203D8FB6C03F118
:104698000103FB647B681B6803F40043002B0CD008
:1046A800FB6C03F00F034FEA53037B64FA6C4FF67D
:1046B800F07313407A6C1343FB64FB6C9AB27B680B
:1046C8009A8107F15007BD4680BD00BF80B483B012
:1046D80000AF78607B684FF416521A607B684FF021
:1046E80000025A607B684FF000029A607B684FF0C6
:1046F8000002DA607B684FF00C021A617B684FF0A9
:1047080000025A6107F10C07BD4680BC704700BF24
:1047180080B485B000AF786039604FF00003FB606B
:104728007B685B68FB60FB6823F47063FB603B6835
:104738001A683B685B681A433B689B681A433B6886
:10474800DB681343FA681343FB607B68FA685A60B6
:1047580007F11407BD4680BC704700BF80B483B022
:1047680000AF78607B684FF000021A607B684FF0FA
:1047780000025A607B684FF000029A607B684FF035
:104788000002DA6007F10C07BD4680BC704700BF25
:1047980080B483B000AF78600B46FB70FB78002BC9
:1047A80006D07B681B6843F001027B681A6005E04D
:1047B8007B681B6823F001027B681A6007F10C070D
:1047C800BD4680BC704700BF80B485B000AFF860BC
:1047D800B9601346FB71FB79002B06D0FB681A6899
:1047E800BB681A43FB681A6007E0FB681A68BB6875
:1047F8006FEA03031A40FB681A6007F11407BD4605
:1048080080BC704780B483B000AF78600B46FB7003
:10481800FB78002B06D07B681B6843F400427B685A
:104828001A6005E07B681B6823F400427B681A6005
:1048380007F10C07BD4680BC704700BF80B483B049
:1048480000AF78600B46FB70FB78002B06D07B68C6
:104858009B6843F400627B689A6005E07B689B680C
:1048680023F400627B689A6007F10C07BD4680BCA0
:10487800704700BF80B483B000AF78600B46FB7010
:10488800FB78002B06D07B685B6843F400227B68CA
:104898005A6005E07B685B6823F400227B685A60F5
:1048A80007F10C07BD4680BC704700BF80B483B0D9
:1048B80000AF78600B46FB70FB78002B06D07B6856
:1048C8005B6843F480227B685A6005E07B685B681C
:1048D80023F480227B685A6007F10C07BD4680BC30
:1048E800704700BF80B485B000AFF860B960134668
:1048F800FB71FB79002B06D0FB685A68BB681A432A
:10490800FB685A6007E0FB685A68BB686FEA0303F4
:104918001A40FB685A6007F11407BD4680BC70470F
:1049280080B483B000AF78600B46FB70FB78002B37
:1049380006D07B685B6843F400427B685A6005E0F8
:104948007B685B6823F400427B685A6007F10C07B8
:10495800BD4680BC704700BF80B483B000AF7860AC
:104968000B46FB70FB78002B06D07B685B6843F432
:1049780000027B685A6005E07B685B6823F40002EC
:104988007B685A6007F10C07BD4680BC704700BFC2
:1049980080B483B000AF786039607B685B6903F0EE
:1049A8007F427B685A617B685A693B681A437B6817
:1049B8005A6107F10C07BD4680BC704780B483B0CC
:1049C80000AF78600B46FB707B681B8A9BB223F0B4
:1049D800FF039AB27B681A827B681B8A9AB2FB78BB
:1049E8009BB213439AB27B681A8207F10C07BD4643
:1049F80080BC704780B483B000AF78600B46FB7012
:104A0800FB78002B06D07B681B6843F002027B68AA
:104A18001A6005E07B681B6823F002027B681A6055
:104A280007F10C07BD4680BC704700BF80B483B057
:104A380000AF786039607B689B6823F440127B681C
:104A48009A607B689A683B681A437B689A6007F1AA
:104A58000C07BD4680BC704780B483B000AF786057
:104A68000B46FB70FB78002B06D07B685B6843F431
:104A780080127B685A6005E07B685B6823F48012CB
:104A88007B685A6007F10C07BD4680BC704700BFC1
:104A980080B483B000AF786039607B685B6823F4CA
:104AA800C0027B685A607B685A683B681A437B6817
:104AB8005A6007F10C07BD4680BC704780B483B0CC
:104AC80000AF78600B467B807B884FEAC3534FEA80
:104AD800D3539AB27B681A8507F10C07BD4680BC90
:104AE800704700BF80B483B000AF78607B689B8C50
:104AF8009BB24FEAC3534FEAD3539BB2184607F110
:104B08000C07BD4680BC704780B483B000AF7860A6
:104B18000B46FB707B685B6823F07F427B685A60BA
:104B28007B685A68FB784FEA03631A437B685A60CC
:104B380007F10C07BD4680BC704700BF80B483B046
:104B480000AF78600B46FB70FB78002B06D07B68C3
:104B58001B6843F400527B681A6005E07B681B6899
:104B680023F400527B681A6007F10C07BD4680BC2D
:104B7800704700BF80B483B000AF786039607B684D
:104B88001B6823F400627B681A607B681A683B68BC
:104B98001A437B681A6007F10C07BD4680BC704752
:104BA80080B483B000AF786039607B685B6823F0BD
:104BB80010027B685A607B685A683B681A437B68B6
:104BC8005A6007F10C07BD4680BC704780B483B0BB
:104BD80000AF786039607B685B6823F020027B68EF
:104BE8005A607B685A683B681A437B685A6007F1C9
:104BF8000C07BD4680BC704780B483B000AF7860B6
:104C08000B46FB70FB78002B06D07B685B6843F48F
:104C180080427B685A6005E07B685B6823F48042C9
:104C28007B685A6007F10C07BD4680BC704700BF1F
:104C380080B483B000AF78600B46FB70FB78002B24
:104C480006D07B689B6843F008027B689A6005E0A1
:104C58007B689B6823F008027B689A6007F10C0761
:104C6800BD4680BC704700BF80B483B000AF786099
:104C78000B46FB707B681B8A9BB2DBB29AB27B68DF
:104C88001A827B681B8A9AB2FB789BB24FEA03238D
:104C98009BB213439AB27B681A8207F10C07BD4690
:104CA80080BC704780B483B000AF78600B46FB705F
:104CB800FB78002B06D07B689B6843F020027B685A
:104CC8009A6005E07B689B6823F020027B689A6005
:104CD80007F10C07BD4680BC704700BF80B483B0A5
:104CE80000AF78600B46FB70FB78002B06D07B6822
:104CF8009B6843F010027B689A6005E07B689B68BC
:104D080023F010027B689A6007F10C07BD4680BC4F
:104D1800704700BF80B483B000AF78600B46FB706B
:104D28007B689B6823F460227B689A607B689A683A
:104D3800FB784FEA43431A437B689A6007F10C07F4
:104D4800BD4680BC704700BF80B483B000AF7860B8
:104D58000B46FB707B685B6923F07F427B685A6176
:104D68007B685A69FB784FEA03631A437B685A6188
:104D780007F10C07BD4680BC704700BF80B483B004
:104D880000AF786039607B689B6823F004027B6819
:104D98009A607B689A683B681A437B689A6007F157
:104DA8000C07BD4680BC704780B483B000AF786004
:104DB8000B46FB70FB78002B06D07B689B6843F0A2
:104DC80002027B689A6005E07B689B6823F0020218
:104DD8007B689A6007F10C07BD4680BC704700BF2E
:104DE80080B483B000AF78600B46FB70FB78002B73
:104DF80006D07B689B6843F480427B689A6005E034
:104E08007B689B6823F480427B689A6007F10C07F3
:104E1800BD4680BC704700BF80B483B000AF7860E7
:104E280039607B689B6823F400427B689A607B68E2
:104E38009A683B681A437B689A6007F10C07BD467D
:104E480080BC704780B483B000AF786039607B68FD
:104E58001B6823F078727B681A607B681A683B6865
:104E68004FEA43531A437B681A6007F10C07BD46A3
:104E780080BC704780B483B000AF786039607B68CD
:104E88001B6823F4F8127B681A607B681A683B6811
:104E98004FEA03431A437B681A6007F10C07BD46C3
:104EA80080BC704780B485B000AFF860B960134625
:104EB800FB71FB79002B06D0FB689A68BB681A4324
:104EC800FB689A6007E0FB689A68BB686FEA0303AF
:104ED8001A40FB689A6007F11407BD4680BC70470A
:104EE80080B483B000AF786039607B689B6823F436
:104EF80000527B689A607B689A683B681A437B68B3
:104F08009A6007F10C07BD4680BC704780B489B031
:104F180000AFF860B9601346FB714FF00003BB6146
:104F28004FF000037B614FF000033B614FF000033B
:104F3800FB61FB68FB61BB689BB24FEA13239BB222
:104F4800BB61BB68DBB27B617B694FF0010202FA8F
:104F580003F33B61BB69022B04D1FB6903F1040332
:104F6800FB6106E0BB69032B03D1FB6903F108036E
:104F7800FB61FB79002B06D0FB69FA6911683A6975
:104F88000A431A6007E0FB69FA6911683A696FEA2F
:104F980002020A401A6007F12407BD4680BC704728
:104FA80080B485B000AFF860B9601346FB71FB7937
:104FB800002B09D0FB681B8B9AB2BB689BB21343CA
:104FC8009AB2FB681A830BE0FB681B8B9AB2BB682A
:104FD8009BB26FEA03039BB213409AB2FB681A8331
:104FE80007F11407BD4680BC704700BF80B483B08A
:104FF80000AF786039607B689B6823F480527B68D7
:105008009A607B689A683B681A437B689A6007F1E4
:105018000C07BD4680BC704780B485B000AF78608F
:1050280039604FF00003FB737B68DA693B68134013
:10503800002B03D04FF00103FB7302E04FF0000395
:10504800FB73FB7B184607F11407BD4680BC70470D
:1050580080B483B000AF786039607B683A681A62C0
:1050680007F10C07BD4680BC704700BF80B487B00D
:1050780000AF786039604FF00003FB604FF0000329
:105088007B614FF00003BB604FF00003FB743B688B
:105098009BB24FEA13239BB2BB603B68DBB27B61D8
:1050A8007B694FF0010202FA03F37B61BB68012BB5
:1050B80005D17B681B687A6913407B610DE0BB688A
:1050C800022B05D17B685B687A6913407B6104E039
:1050D8007B689B687A6913407B613B684FEA13439E
:1050E800FB60FB684FF0010202FA03F3FB607B6888
:1050F800DB69FA681340FB607B69002B06D0FB680C
:10510800002B03D04FF00103FB7402E04FF00003C3
:10511800FB74FB7C184607F11C07BD4680BC704732
:1051280080B485B000AF786039604FF00003FB6051
:105138004FF00003BB603B684FEA1343FB60FB681A
:105148004FF0010202FA03F3BB607B68BA681A6287
:1051580007F11407BD4680BC704700BF80B500AF9B
:105168004FF46D43CEF200034FF46D42CEF20002CD
:10517800D2F8882042F47002C3F888204FF4805394
:10518800C4F202034FF48052C4F20202126842F0E1
:1051980001021A604FF48052C4F202024FF48053A5
:1051A800C4F2020359684CF20C03CFF67F030B409C
:1051B80053604FF48053C4F202034FF48052C4F298
:1051C8000202126822F0847222F480321A604FF4CC
:1051D8008053C4F202034FF48052C4F202021268F0
:1051E80022F480221A604FF48053C4F202034FF471
:1051F8008052C4F20202526822F4FE025A604FF44E
:105208008053C4F202034FF48052C4F20202D26AFD
:1052180022F00F02DA624FF48052C4F202024FF415
:105228008053C4F20203196B4FF6CC43CFF60073D8
:105238000B4013634FF48053C4F202034FF0000293
:105248009A6000F0A7F84FF46D43CEF200034FF0D8
:1052580000629A6080BD00BF80B485B000AF4FF097
:105268000003FB604FF00003BB604FF000037B605E
:105278004FF000033B604FF48053C4F202035B68B5
:1052880003F00C03FB60FB68042B0DD0082B15D032
:10529800002B53D140F22C03C2F200034FF490527A
:1052A800C0F27A021A6053E040F22C03C2F2000303
:1052B8004FF49052C0F27A021A6049E04FF48053DA
:1052C800C4F202035B6803F47013BB604FF48053AD
:1052D800C4F202035B6803F480337B60BB684FEA67
:1052E800934303F10203BB607B68002B0CD1BA68BF
:1052F8004FF41063C0F23D0303FB02F240F22C03AB
:10530800C2F200031A6023E04FF48053C4F2020390
:10531800DB6A03F00F0303F101033B604FF4905382
:10532800C0F27A033A68B3FBF2F3BA6802FB03F2FD
:1053380040F22C03C2F200031A6009E040F22C0389
:10534800C2F200034FF49052C0F27A021A6000BF12
:105358004FF48053C4F202035B6803F0F0034FEA92
:10536800131240F23003C2F200039B5CDBB2FB6015
:1053780040F22C03C2F200031A68FB6822FA03F217
:1053880040F22C03C2F200031A6007F11407BD466D
:1053980080BC704780B483B000AF4FF000037B60DF
:1053A8004FF000033B604FF48053C4F202034FF404
:1053B8008052C4F20202126842F480321A604FF43A
:1053C8008053C4F202031B6803F400333B607B681C
:1053D80003F101037B603B68002B03D17B68B3F5C5
:1053E800A06FECD14FF48053C4F202031B6803F49E
:1053F8000033002B03D04FF001033B6002E04FF075
:1054080000033B603B68012B76D14FF40053C4F294
:1054180002034FF012021A604FF48053C4F20203E1
:105428004FF48052C4F2020252685A604FF480531B
:10543800C4F202034FF48052C4F2020252685A6066
:105448004FF48053C4F202034FF48052C4F20202B4
:10545800526842F480625A604FF48053C4F20203E7
:105468004FF48052C4F20202526822F47C125A604D
:105478004FF48053C4F202034FF48052C4F2020284
:10548800526842F4E8125A604FF48053C4F202039F
:105498004FF48052C4F20202126842F080721A601D
:1054A80000BF4FF48053C4F202031B6803F000737B
:1054B800002BF6D04FF48053C4F202034FF480520D
:1054C800C4F20202526822F003025A604FF4805379
:1054D800C4F202034FF48052C4F20202526842F04E
:1054E80002025A6000BF4FF48053C4F202035B68A3
:1054F80003F00C03082BF6D107F10C07BD4680BC5E
:10550800704700BF002100F004B80C4B5B584350B3
:1055180004310B480B4B42189A42FFF4F6AF0A4A83
:1055280000F003B8002342F8043B084B9A42FFF40A
:10553800F9AFFFF713FEFBF7A7F97047A856000865
:10554800000000206804002068040020780A002079
:10555800FFF7FEBF2DE9F041274C2568D5F84841F3
:1055680084B00746002C41D066681F2E1CDD2348F6
:1055780010B94FF0FF301FE04FF4C870039102924A
:105588000193AFF300800399029A019B0446002817
:10559800EFD0D5F84861002060602660C5F8484122
:1055A800C4F88801C4F88C01656847B9A81C01359E
:1055B80044F820106560002004B0BDE8F081D4F8FC
:1055C8008861012004EB850800FA05F00643022FE4
:1055D800C8F88820C4F88861C8F80831E6D1D4F83A
:1055E8008C3143EA0002C4F88C21DFE705F5A67484
:1055F800C5F84841B8E700BF7C5600080000000025
:1056080070B5114B114C181B811018D004EB810494
:105618004E1E354654F8042D06F00106904775B124
:1056280026B154F8043D9847013D08D054F8040DBC
:105638008047013D54F8041D8847013DF6D1BDE877
:10564800704000F01FB800BFA4560008A05600081C
:10565800024B13B1024800F005B870470000000083
:10566800095600080146002002460346FFF772BFAC
:105678004300000040000020F8B500BFF8BC08BC9B
:105688009E467047F8B500BFF8BC08BC9E467047F8
:0856980059560008AD0100089D
:0456A0008901000874
:1056A80000000000010203040102030406070809C0
:1056B8000000010002000400060008000A000C00B7
:1056C80010002000400080000001000000A24A04F1
:1056D800000000000000000001020304060708099A
:1056E800000000002C03002094030020FC0300208D
:1056F80000000000000000000000000000000000A2
:105708000000000000000000000000000000000091
:1057180000000000785600080000000000000000AB
:105728000000000000000000000000000000000071
:105738000000000000000000000000000000000061
:105748000000000000000000000000000000000051
:105758000000000000000000000000000000000041
:105768000000000000000000000000000000000031
:105778000000000000000000000000000000000021
:105788000000000000000000010000000000000010
:105798000E33CDAB34126DE6ECDE05000B000000D5
:1057A80000000000000000000000000000000000F1
:1057B80000000000000000000000000000000000E1
:1057C80000000000000000000000000000000000D1
:1057D80000000000000000000000000000000000C1
:040000050800550D8D
:00000001FF
